:100000000C9474000C9495000C9495000C9495003D
:100010000C9495000C9495000C9495000C9495000C
:100020000C9495000C9495000C9495000C949500FC
:100030000C9495000C9495000C9495000C949500EC
:100040000C9495000C9495000C9495000C949500DC
:100050000C9495000C9495000C9495000C949500CC
:100060000C9495000C9495000C9495000C949500BC
:100070000C9495000C9495000C9495000C949500AC
:100080000C9495000C9495000C9495000C9495009C
:100090000C9495000C9495000C9495000C9495008C
:1000A0000C9495000C9495000C9495000C9495007C
:1000B0000C9495000C9495000C9495000C9495006C
:1000C0000C9495000C9495000C9495000C9495005C
:1000D0000C9495000C9495000C9495000C9495004C
:1000E0000C9495000C94970011241FBECFEFD1E221
:1000F000DEBFCDBF00E00CBF12E0A0E0B2E0EEEF4B
:10010000FAE000E00BBF02C007900D92A435B107E2
:10011000D9F722E0A4E5B2E001C01D92AA35B207EA
:10012000E1F70E9466020C947D050C9400008A3071
:1001300049F09091C00095FFFCCF8093C60090E0FD
:1001400080E008959091C00095FFFCCF9DE09093D2
:10015000C600EFCF9093C5008093C40086E08093E3
:10016000C20088E98093C10008959091C00095FF76
:10017000FCCF8093C60008958091C00087FFFCCF1C
:100180008091C60008958091C000881F8827881F2D
:100190000895FC012081222351F031969091C000F6
:1001A00095FFFCCF2093C60021912111F7CF089530
:1001B00080E092E090935702809356021092C5001F
:1001C00083E38093C40086E08093C20088E9809333
:1001D000C10008951092B90088E48093B800089592
:1001E00094EA9093BC009091BC0097FFFCCF880FDD
:1001F0006170862B8093BB0084E88093BC00809163
:10020000BC0087FFFCCF8091B900887F089584E906
:100210008093BC0085E38A95F1F7000008958093F0
:10022000BB0084E88093BC008091BC0087FFFCCFBA
:100230008091B900887F089584EC8093BC00809100
:10024000BC0087FFFCCF8091BB00089584E88093B9
:10025000BC008091BC0087FFFCCF8091BB0008955B
:1002600094EA9093BC009091BC0097FFFCCF90E083
:10027000880F991F8093BB0084E88093BC00809115
:10028000BC0087FFFCCF8091B900887F883141F0A6
:1002900094E99093BC0095E39A95F1F700000895D6
:1002A0006093BB0084E88093BC008091BC0087FF12
:1002B000FCCF8091B900887F883251F74093BB0012
:1002C00084E88093BC008091BC0087FFFCCF8091C4
:1002D000B900887F8832E1F684E98093BC0085E329
:1002E0008A95F1F7000080E0089594EA9093BC00AD
:1002F0009091BC0097FFFCCF282F30E0220F331FD6
:100300002093BB0084E88093BC009091BC0097FFD1
:10031000FCCF8091B900887F883141F094E99093B7
:10032000BC0095E39A95F1F7000008956093BB0037
:1003300084E88093BC008091BC0087FFFCCF809153
:10034000B900887F883241F094E99093BC00E5E3DE
:10035000EA95F1F70000089584EA8093BC0080914B
:10036000BC0087FFFCCF21602093BB0084E8809312
:10037000BC008091BC0087FFFCCF8091B900887FD2
:10038000803441F094E99093BC00F5E3FA95F1F7DD
:100390000000089584E88093BC008091BC0087FF32
:1003A000FCCF8091BB00FA01808384E98093BC007C
:1003B000F5E3FA95F1F7000080E0089594EA909350
:1003C000BC009091BC0097FFFCCFE82FF0E0EE0F4F
:1003D000FF1FE093BB0084E88093BC009091BC00B9
:1003E00097FFFCCF8091B900887F883141F094E974
:1003F0009093BC0095E39A95F1F7000008956093FF
:10040000BB0084E88093BC008091BC0087FFFCCFD8
:100410008091B900887F883241F094E99093BC00C4
:10042000E5E3EA95F1F70000089584EA8093BC00C3
:100430008091BC0087FFFCCFE160E093BB0084E8C3
:100440008093BC008091BC0087FFFCCF8091B900F5
:10045000887F803441F094E99093BC00F5E3FA95ED
:10046000F1F70000089530E0D90111971A161B0624
:10047000ACF460E0F0E0E0E074ECE40FF51F7093A2
:10048000BC008091BC0087FFFCCF8091BB008083C3
:100490006F5FE62FF0E0EA17FB077CF3215031098C
:1004A000420F531F84E88093BC008091BC0087FFFB
:1004B000FCCF8091BB00FA01808384E98093BC006B
:1004C000F5E3FA95F1F7000080E008950E94D80066
:1004D0000E94EA0078948EE092E00E94AC02C1E0B3
:1004E000D0E002E212E00CC00E9407018FE19EE41E
:1004F0000197F1F700C000002196CF37D10599F0A0
:1005000060E08C2F0E94F000883111F0803461F798
:10051000DF93CF931F930F930E9498020F900F9039
:100520000F900F90E1CF80E492E00E94AC02FFCFE9
:10053000CF93DF93CDB7DEB7AE014A5F5F4FFA01CD
:1005400061917191AF0180915602909157020E9482
:10055000D702DF91CF9108950F931F93CF93DF932D
:10056000E0915602F09157022381EC0110E000E087
:1005700021FD08C00FEF1FEF14C01995892B11F052
:100580000FEF1FEF89916091560270915702DB01C6
:100590001896ED91FC918111F0CF8AE01995892B85
:1005A00049F7C801DF91CF911F910F9108952F92C4
:1005B0003F924F925F926F927F928F929F92AF92F3
:1005C000BF92CF92DF92EF92FF920F931F93CF9340
:1005D000DF9300D000D000D01F921F92CDB7DEB7BE
:1005E0007C013B018A01FC0117821682838181FF15
:1005F000DDC1CE0101965C01F7019381F30193FD0A
:10060000859193FF81913F01882309F453C185327D
:1006100039F493FD859193FF81913F01853229F44F
:10062000B70190E00E94EF04E7CF912C212C312CF0
:10063000FFE1F31538F08B3211F190F4803209F1BB
:10064000833229F137FC3CC020ED280F2A3050F5C9
:1006500036FE20C08AE0989E200D1124922E06C0FE
:100660008D3291F0803371F7689430F8F30193FD87
:10067000859193FF81913F018111DACF21C0689468
:1006800031F8689432F8F2CF689433F8EFCF689479
:1006900034F8ECCFEAE02E9E200D1124222E68942F
:1006A00035F8E4CF8E3229F436FC04C1689436F86C
:1006B000DDCF8C3619F4689437F8D8CF8836B1F28C
:1006C000982F9F7D95549330E0F08336A1F18337C6
:1006D000C1F1833509F063C02801F2E04F0E511CCF
:1006E000F801C080D180692D70E036FC02C06FEF48
:1006F0007FEFC6010E94D9044C01689437F882014B
:100700000AC00C5F1F4FFFE3F98388248394912C68
:100710006501E89437F833FE2DC0522C8114910402
:1007200071F5552009F468CFB70180E290E00E948E
:10073000EF045A94F6CFF801808189830E5F1F4F32
:10074000E4CF2801F2E04F0E511CF801C080D180A7
:10075000692D70E036FC02C06FEF7FEFC6010E948A
:10076000E4044C018201D5CFB70180E290E00E9401
:10077000EF042A942814190409F0B0F7CECFF6013B
:1007800037FC859137FE81916F01B70190E00E949F
:10079000EF0451105A94F1E08F1A9108BFCF8436BC
:1007A00019F0893609F077C0F80137FE6BC0608117
:1007B0007181828193810C5F1F4FF32DFF763F2E55
:1007C00097FF09C090958095709561957F4F8F4FE9
:1007D0009F4F689437F82AE030E0A5010E941F057A
:1007E000C82ECA188C2C432C36FE0CC0E89440F856
:1007F000C91440F434FE05C032FC03C0F32DFE7E64
:100800004F2E892C44FEAAC0FE01EC0DF11D808103
:10081000803309F09CC0242D297E422E842D8870BF
:10082000582E43FCAAC040FEA4C09C2C821418F48D
:100830002C0C922C981844FEA6C0B70180E390E0DF
:100840000E94EF0442FE09C088E790E041FE02C02A
:1008500088E590E0B7010E94EF04C91408F49FC036
:10086000CA94D12C9FEFC91AD90ACA0CDB1CF60115
:1008700082916F01B70190E00E94EF04AC14BD04B7
:10088000B1F74FCF60817181072E000C880B990B57
:100890000E5F1F4F92CFD32CE894D4F82AE030E0BB
:1008A0008537E1F1232D297FD22E8F36A9F1F0F47F
:1008B000883551F1F701868197812B960FB6F89410
:1008C000DEBF0FBECDBFDF91CF911F910F91FF9083
:1008D000EF90DF90CF90BF90AF909F908F907F90E0
:1008E0006F905F904F903F902F900895803749F020
:1008F000883701F7D4FE02C06894D2F820E130E0D6
:100900000DC06894D4F8F6CF34FE03C0822F866001
:10091000D82E20E132E002C028E030E0F801D7FE16
:100920000FC060817181828193810C5F1F4FA5018F
:100930000E941F05C82ECA183D2CE89437F852CFE4
:100940006081718190E080E00E5F1F4FF0CF42FC2C
:1009500002C0839463CF8394839460CF842D867880
:1009600009F45CCFF6CFB70180E290E00E94EF047B
:1009700083948214C0F3512C5ECF522C58188214E9
:1009800008F459CFF8CF842D867809F466CF8BE22E
:1009900041FE80E247FC8DE2B70190E05CCFB701F9
:1009A00080E390E00E94EF049A9457CF8FEF9FEF7F
:1009B00084CFFC010590615070400110D8F78095FC
:1009C00090958E0F9F1F0895FC016150704001901B
:1009D0000110D8F7809590958E0F9F1F08950F9363
:1009E0001F93CF93DF93182F092FEB018B8181FD8C
:1009F00009C01FEF0FEF812F902FDF91CF911F9133
:100A00000F91089582FF14C02E813F818C819D81BA
:100A1000281739073CF4E881F981CF0101969983C1
:100A2000888310838E819F8101969F838E83E3CF7D
:100A3000E885F985812F1995892BA1F3DACFFA0181
:100A4000AA27283051F1203181F1E8946F936E7F0D
:100A50006E5F7F4F8F4F9F4FAF4FB1E03ED0B4E0FE
:100A60003CD0670F781F891F9A1FA11D680F791F3F
:100A70008A1F911DA11D6A0F711D811D911DA11D50
:100A800020D009F468943F912AE0269F1124301960
:100A9000305D3193DEF6CF010895462F4770405DFB
:100AA0004193B3E00FD0C9F7F6CF462F4F70405DAA
:100AB0004A3318F0495D31FD4052419302D0A9F705
:100AC000EACFB4E0A6959795879577956795BA95FF
:100AD000C9F700976105710508959B01AC010A2EC5
:100AE00006945795479537952795BA95C9F7620F9C
:0E0AF000731F841F951FA01D0895F894FFCF5B
:100AFE0000000002000000009700000000004932D4
:100B0E0043205363616E6E657220617676696174FF
:100B1E006F0054726F7661746F20646973706F73B7
:100B2E00697469766F2061203078253032580A005A
:100B3E005363616E6E657220636F6D706C65746168
:040B4E00746F0000C0
:00000001FF
