:100000000C94F3000C9414010C9414010C9414013E
:100010000C9414010C9414010C9414010C9414010C
:100020000C9414010C9414010C9414010C941401FC
:100030000C9414010C9414010C9414010C941401EC
:100040000C9414010C9414010C9414010C941401DC
:100050000C9414010C9414010C9414010C941401CC
:100060000C9414010C9414010C9414010C941401BC
:100070000C9414010C9414010C9414010C941401AC
:100080000C9414010C9414010C9414010C9414019C
:100090000C9414010C9414010C9414010C9414018C
:1000A0000C9414010C9414010C9414010C9414017C
:1000B0000C9414010C9414010C9414010C9414016C
:1000C0000C9414010C9414010C9414010C9414015C
:1000D0000C9414010C9414010C9414010C9414014C
:1000E0000C9414010C9416010C94B50800407A107D
:1000F000F35A00A0724E18090010A5D4E80000E8D9
:100100007648170000E40B54020000CA9A3B000036
:1001100000E1F505000080969800000040420F00C5
:100120000000A08601000000102700000000E80386
:10013000000000006400000000000A000000000051
:100140000100000000002C76D888DC674F0823DF10
:10015000C1DFAE59E1B1B796E5E3E453C63AE651E3
:10016000997696E8E6C28426EB898C9B62ED407C0A
:100170006FFCEFBC9C9F40F2BAA56FA5F490055AA6
:100180002AF75C936B6CF9676DC11BFCE0E40D47CB
:10019000FEF520E6B500D0ED902E030094357705EE
:1001A0000080841E080000204E0A000000C80C33A6
:1001B0003333330F986E12831141EF8D2114893B35
:1001C000E65516CFFEE6DB18D1844B381BF77C1DB5
:1001D000901DA4BBE424203284725E228100C9F108
:1001E00024ECA1E53D2711241FBECFEFD1E2DEBFF5
:1001F000CDBF00E00CBF12E0A0E0B2E0EAE9F1E21E
:1002000000E00BBF02C007900D92A834B107D9F7E8
:1002100022E0A8E4B2E001C01D92A337B207E1F7E3
:100220000E94CE070C94CB100C9400008A3049F049
:100230009091C00095FFFCCF8093C60090E080E0D5
:1002400008959091C00095FFFCCF9DE09093C6006B
:10025000EFCF9093C5008093C40086E08093C200E6
:1002600088E98093C10008959091C00095FFFCCF6C
:100270008093C60008958091C00087FFFCCF8091D5
:10028000C60008958091C000881F8827881F0895A0
:10029000FC012081222351F031969091C00095FFFE
:1002A000FCCF2093C60021912111F7CF089580E063
:1002B00092E09093700280936F021092C50083E3E6
:1002C0008093C40086E08093C20088E98093C100D7
:1002D00008951092B90088E48093B800089594EAD4
:1002E0009093BC009091BC0097FFFCCF880F617089
:1002F000862B8093BB0084E88093BC008091BC0077
:1003000087FFFCCF8091B900887F089584E98093AE
:10031000BC0085E38A95F1F7000008958093BB0047
:1003200084E88093BC008091BC0087FFFCCF809163
:10033000B900887F089584EC8093BC008091BC0054
:1003400087FFFCCF8091BB00089584E88093BC00B8
:100350008091BC0087FFFCCF8091BB00089594EA98
:100360009093BC009091BC0097FFFCCF90E0880F69
:10037000991F8093BB0084E88093BC008091BC00EF
:1003800087FFFCCF8091B900887F883141F094E9E4
:100390009093BC0095E39A95F1F70000089560935F
:1003A000BB0084E88093BC008091BC0087FFFCCF39
:1003B0008091B900887F883251F74093BB0084E870
:1003C0008093BC008091BC0087FFFCCF8091B90076
:1003D000887F8832E1F684E98093BC0085E38A95C2
:1003E000F1F7000080E0089594EA9093BC009091AA
:1003F000BC0097FFFCCF282F30E0220F331F209343
:10040000BB0084E88093BC009091BC0097FFFCCFB8
:100410008091B900887F883141F094E99093BC00C5
:1004200095E39A95F1F7000008956093BB0084E886
:100430008093BC008091BC0087FFFCCF8091B90005
:10044000887F883241F094E99093BC00E5E3EA9517
:10045000F1F70000089584EA8093BC008091BC000D
:1004600087FFFCCF21602093BB0084E88093BC0011
:100470008091BC0087FFFCCF8091B900887F8034D9
:1004800041F094E99093BC00F5E3FA95F1F7000090
:10049000089584E88093BC008091BC0087FFFCCF66
:1004A0008091BB00FA01808384E98093BC00F5E36E
:1004B000FA95F1F7000080E0089594EA9093BC006B
:1004C0009091BC0097FFFCCFE82FF0E0EE0FFF1FEC
:1004D000E093BB0084E88093BC009091BC0097FF40
:1004E000FCCF8091B900887F883141F094E99093E6
:1004F000BC0095E39A95F1F7000008956093BB0066
:1005000084E88093BC008091BC0087FFFCCF809181
:10051000B900887F883241F094E99093BC00E5E30C
:10052000EA95F1F70000089584EA8093BC00809179
:10053000BC0087FFFCCFE160E093BB0084E88093C0
:10054000BC008091BC0087FFFCCF8091B900887F00
:10055000803441F094E99093BC00F5E3FA95F1F70B
:100560000000089530E0D90111971A161B06ACF46B
:1005700060E0F0E0E0E074ECE40FF51F7093BC0085
:100580008091BC0087FFFCCF8091BB0080836F5FB0
:10059000E62FF0E0EA17FB077CF321503109420F08
:1005A000531F84E88093BC008091BC0087FFFCCF80
:1005B0008091BB00FA01808384E98093BC00F5E35D
:1005C000FA95F1F7000080E00895CF93DF9300D013
:1005D0001F92CDB7DEB722E0AE014F5F5F4F68E8F4
:1005E00086E70E945D0289819A8190936C028093D4
:1005F0006B0222E0AE014F5F5F4F6AE886E70E9420
:100600005D0289819A8190936A028093690222E057
:10061000AE014F5F5F4F6CE886E70E945D02898103
:100620009A81909368028093670222E0AE014F5F47
:100630005F4F6EE886E70E945D0289819A81909300
:1006400066028093650222E0AE014F5F5F4F60E972
:1006500086E70E945D0289819A819093640280936B
:10066000630222E0AE014F5F5F4F62E986E70E94BE
:100670005D0289819A81909362028093610222E0F7
:10068000AE014F5F5F4F64E986E70E945D0289819A
:100690009A819093600280935F0222E0AE014F5FE7
:1006A0005F4F66E986E70E945D0289819A81909397
:1006B0005E0280935D0222E0AE014F5F5F4F68E90A
:1006C00086E70E945D0289819A8190935C02809303
:1006D0005B0222E0AE014F5F5F4F6AE986E70E944E
:1006E0005D0289819A8190935A028093590222E097
:1006F000AE014F5F5F4F6CE986E70E945D02898122
:100700009A81909358028093570222E0AE014F5F86
:100710005F4F6EE986E70E945D0289819A8190931E
:10072000560280935502AE014F5F5F4F61EA86E744
:100730000E94F40189818093540222E0AE014F5F50
:100740005F4F61EE86E70E945D0289819A819093F6
:10075000530280935202AE014F5F5F4F63EE86E714
:100760000E94F401898180935102AE014C5F5F4F7A
:1007700064EE86E70E94F401AE014D5F5F4F65EEC7
:1007800086E70E94F401AE014F5F5F4F66EE86E799
:100790000E94F4012B818C8130E1839FC0011124E0
:1007A000322F3F70832B9093500280934F028981A8
:1007B00030E1839FC001112422952F70822B9093EA
:1007C0004E0280934D02AE014F5F5F4F67EE86E7AA
:1007D0000E94F401898180934C0241E062EF86E738
:1007E0000E94AF0147E264EF86E70E94AF0140EA52
:1007F00065EF86E70E94AF010F900F900F900F906A
:10080000DF91CF9108958F929F92AF92BF92CF9236
:10081000DF92EF92FF92CF93DF9300D0CDB7DEB798
:1008200023E0AE014F5F5F4F6AEF86E70E945D02F3
:10083000898190E0B0E0A0E02CE0880F991FAA1F0A
:10084000BB1F2A95D1F74A8150E070E060E0440F69
:10085000551F661F771F440F551F661F771F440FD4
:10086000551F661F771F440F551F661F771F842B68
:10087000952BA62BB72B2B8122952F70822B409185
:100880006B0250916C0270E060E06C017D01F4E05D
:10089000F594E794D794C794FA95D1F7C41AD50A7A
:1008A000E60AF70A23E0B595A795979587952A95C7
:1008B000D1F7440F551F661F771F4C015D01841A45
:1008C000950AA60AB70AA5019401A0916902B09100
:1008D0006A020E9447084B015C014BE0B594A79463
:1008E000979487944A95D1F7A7019601C701B6015D
:1008F0000E942C089B01AC016CE0559547953795FB
:1009000027956A95D1F7A0916702B09168020E947D
:100910004708EEE09595879577956795EA95D1F725
:10092000860E971EA81EB91E809248029092490218
:10093000A0924A02B0924B02C501B401660F771F24
:10094000881F991F660F771F881F991F680D791DD3
:100950008A1D9B1D60587F4F8F4F9F4F672F782FA9
:10096000892F992787FD9A950E945B0A20E030E045
:1009700048EC52E40E94E1090F900F900F90DF9134
:10098000CF91FF90EF90DF90CF90BF90AF909F906E
:100990008F9008952F923F924F925F926F927F9225
:1009A0008F929F92AF92BF92CF92DF92EF92FF927F
:1009B0000F931F93CF93DF93CDB7DEB76A970FB630
:1009C000F894DEBF0FBECDBF23E0AE014F5F5F4F97
:1009D00067EF86E70E945D022981288F8A81898FCF
:1009E0002B812A8F8091480290914902A0914A025E
:1009F000B0914B026C017D01FF0CCC08DC2C760120
:100A00009C01AD016C2D7C2D8C2D9C2D345F4140C3
:100A1000510961097109810991092C833D834E8334
:100A20005F83688779878A879B8759016A017B0181
:100A30008C010E944F082C873D874E875F876C8B07
:100A40007D8B8E8B9F8B3091640220916302932F5C
:100A5000990F990B492F592F692F792F892F0E94B0
:100A60004F080CE00E947E09922E832E742E652E74
:100A7000562E472E382E292E309162022091610287
:100A8000932F990F990BAC84BD84CE84DF84EC88BE
:100A9000FD880E891F89492F592F692F792F892F9A
:100AA0000E944F0808E00E949709A92CB82CC72C77
:100AB000D62CE52CF42C032D122D0E94B40970586D
:100AC0008F4F9F4F20906502309066025101C12CDC
:100AD000D12CE12CF12C00E010E00E944F0801E243
:100AE0000E949709288B398B4A8B5B8B362E872E79
:100AF000982E292EA0E00E94C60909F450C1309119
:100B00005C0220915B02932F990F990BAC84BD84FA
:100B1000CE84DF84EC88FD880E891F89492F592FE8
:100B2000692F792F892F0E944F082C873D872A0132
:100B30003B018E879F8730915E0220915D02932F4B
:100B4000990F990BAC80BD80CE80DF80E884F9845A
:100B50000A851B85492F592F692F792F892F0E94CC
:100B60004F0801E10E947E09AC84BD8462017301DB
:100B70000E851F850E94B40959016A017B018C838F
:100B8000192F298D822F90E0B0E0A0E0880F991FE7
:100B9000AA1FBB1F880F991FAA1FBB1F880F991F71
:100BA000AA1FBB1F880F991FAA1FBB1F2A8D229542
:100BB0002F70822B288D422F50E070E060E0ECE037
:100BC000440F551F661F771FEA95D1F7482B592B05
:100BD0006A2B7B2B80E090E0A0E1B0E0841B950BBA
:100BE000A60BB70B2C013D01770C4408542C3201A5
:100BF0009C01AD01642D742D842D942D0FE10E9474
:100C00007E09B22FA32FF42FE52F2B01782E692E0A
:100C10003091600220915F02932F990F990B492F19
:100C2000592F692F792F892F03E20E947E090C81A9
:100C30000E94B40959016A017B018C012B2F3A2FC4
:100C40004F2F5E2FB201872D962D0E94BD09A5E37F
:100C5000AA2EBCE0BB2EC12CD12CE12CF12C00E043
:100C600010E00E944F08A888B988CA88DB88E32C66
:100C7000F82C092D122D0E94A9082C833D834E8348
:100C80005F83688779878A879B870DE00E94970931
:100C9000922E832E742E652E562E472E382E292EF8
:100CA0003091560220915502932F990F990BA92C40
:100CB000B82CC72CD62CE52CF42C032D122D492F43
:100CC000592F692F792F892F0E944F080E944F08B2
:100CD00009E10E949709AC80BD80CE80DF80E88466
:100CE000F9840A851B850E94B40919012A013B0178
:100CF0004C013091580220915702932F990F990B74
:100D0000492F592F692F792F892F0E944F0803E10E
:100D10000E94970959016A017B018C019101A2018E
:100D2000B301C4010E94B40908E00E949709590167
:100D30006A017B01E82F192F30915A022091590244
:100D4000932F990F990B492F592F692F792F892F9D
:100D500004E00E947E090E2F0E94B4090E94530AEB
:100D600020E030E048EC56E40E94E1096A960FB6B4
:100D7000F894DEBF0FBECDBFDF91CF911F910F91D1
:100D8000FF90EF90DF90CF90BF90AF909F908F90AB
:100D90007F906F905F904F903F902F90089560E00C
:100DA00070E0CB01E3CF4F925F926F927F928F9270
:100DB0009F92AF92BF92CF92DF92EF92FF92CF932A
:100DC000DF931F921F92CDB7DEB722E0AE014F5FD7
:100DD0005F4F6DEF86E70E945D02C980DA80DC24F8
:100DE000CD24DC24F12CE12C809048029090490223
:100DF000A0904A02B0904B028CE2981A81E0A80AB7
:100E0000B1084EE0CC0CDD1CEE1CFF1C4A95D1F75E
:100E100080914F0290915002092E000CAA0BBB0B3F
:100E200054E1880F991FAA1FBB1F5A95D1F7C81A02
:100E3000D90AEA0AFB0AA0914D02B0914E02A5011F
:100E400094010E944708C61AD70AE80AF90A80E402
:100E5000D80EE11CF11C6FE0F594E794D794C79489
:100E60006A95D1F7A0915102B0E00E943C082B0195
:100E70003C017BE075946794579447947A95D1F739
:100E800080E8580E611C711CA0914C020A2E000CC7
:100E9000BB0B0E944708EAE0959587957795679583
:100EA000EA95D1F7A30192010E942C089B01AC01A5
:100EB000FAE05595479537952795FA95D1F7405E15
:100EC0005F4FA0915202B09153020E944708705E9A
:100ED0008F4F9F4FAEE09595879577956795AA952B
:100EE000D1F7A70196010E942C086B017C01BFE09D
:100EF0009595879577956795BA95D1F79B01AC0144
:100F00000E942C089B01AC0187E0559547953795C9
:100F100027958A95D1F7A0915402B0E00E943C0831
:100F200024E095958795779567952A95D1F7C61A08
:100F3000D70AE80AF90A81E0C816D104E10489E178
:100F4000F8062CF0C12CD12CE12C39E1F32EC7018D
:100F5000B60197FF03C060E070E0CB012CE09595EF
:100F60008795779567952A95D1F70E945B0A20E0CF
:100F700030E040E85AE30E94350B0F900F90DF916C
:100F8000CF91FF90EF90DF90CF90BF90AF909F9068
:100F90008F907F906F905F904F900895CF93DF93E5
:100FA000CDB7DEB7E8970FB6F894DEBF0FBECDBF62
:100FB0000E9457010E94690178940E94E502CE01C7
:100FC00085966C0140977C018EE0282E82E0382EB9
:100FD0000E9403046DAB7EAB8FAB98AF0E94CA0436
:100FE0002B013C010E94D3064B015C01860122E0EB
:100FF00046E06DA97EA98FA998AD0E94A20B8E0133
:101000000F5F1F4F22E047E0C301B2010E94A20B15
:10101000870122E046E0C501B4010E94A20BFF92C5
:10102000EF9281E090E08C0F9D1F9F938F93DF9252
:10103000CF923F922F920E94C00B9FEF27EA81E64A
:10104000915020408040E1F700C000000FB6F894B6
:10105000DEBF0FBECDBFBCCFDB018F939F930E943D
:101060003C08BF91AF91A29F800D911DA39F900D51
:10107000B29F900D112408950E94D209A59F900D52
:10108000B49F900DA49F800D911D11240895B7FF6A
:101090000C943C080E943C08821B930B0895DF933C
:1010A000CF931F930F939A9DF02D219FF00D8B9D51
:1010B000F00D8A9DE02DF10D039FF00D029FE00DD4
:1010C000F11D4E9DE00DF11D5E9DF00D4F9DF00D4B
:1010D0007F936F93BF92AF925F934F93D5010E941E
:1010E000D2098B01AC01D7010E94D209EB01E80FB4
:1010F000F91FD6010E949E082F913F91D6010E94B0
:10110000D209C60FD71FE81FF91FAF91BF910E94E8
:101110009E082F913F910E94D209C60FD71FE81F4A
:10112000F91FD6010E94D209E60FF71F9801BE01F0
:10113000CF010F911F91CF91DF9108950E94D209A5
:10114000460F571FC81FD91F08F431960895689499
:1011500001C0E894F92FF12B12F00C94DB08A0E009
:10116000B0E0E5EBF8E00C944D09092E059422F46B
:101170000E943709112392F4F0E80F26FFEFE09464
:10118000F09400951095B094C094D094A194BF0AA7
:10119000CF0ADF0AEF0AFF0A0F0B1F0B0E94E608B7
:1011A00007FC0E943709CDB7DEB7ECE00C94690963
:1011B000689401C0E8948F929F92CF93DF930E942E
:1011C000E608DF91CF919F908F900895882499240D
:1011D000F401E401B0E49F93AA279A158B049C04C0
:1011E000ED05FE05CF05D007A10798F4AD2FDC2F44
:1011F000CF2FFE2FE92D982C892E982F872F762F11
:10120000652F542F432F322F2227B85031F7BF912B
:1012100027C01B2EBF91BB27220F331F441F551F12
:10122000661F771F881F991F881C991CEE1FFF1FC0
:10123000CC1FDD1FAA1FBB1F8A149B04EC05FD05F4
:10124000CE05DF05A007B10748F08A189B08EC0916
:10125000FD09CE09DF09A00BB10B21601A94E1F65C
:101260002EF49401AF01BE01CD01000C08956095EC
:1012700070958095909530954095509521953F4F6C
:101280004F4F5F4F6F4F7F4F8F4F9F4F08952F925C
:101290003F924F925F926F927F928F929F92AF9206
:1012A000BF92CF92DF92EF92FF920F931F93CF9353
:1012B000DF93CDB7DEB7CA1BDB0B0FB6F894DEBFEA
:1012C0000FBECDBF19942A88398848885F846E8400
:1012D0007D848C849B84AA84B984C884DF80EE805A
:1012E000FD800C811B81AA81B981CE0FD11D0FB663
:1012F000F894DEBF0FBECDBFED010895002E08307B
:1013000090F0982F872F762F652F542F432F322F51
:1013100022270850F4CF220F331F441F551F661F8A
:10132000771F881F991F0A95B2F7002D089597FD22
:101330001094002E083098F00850232F342F452F9A
:10134000562F672F782F892F912DF4CF15949795CD
:1013500087957795679557954795379527950A957A
:10136000AAF71124002D08952A0D3B1D4C1D5D1D6B
:101370006E1D7F1D801F911F08952A193B094C097E
:101380005D096E097F09800B910B08950024A7FD6C
:1013900000942A173005400550056005700580054A
:1013A00090050895A29FB001B39FC001A39F700D47
:1013B000811D1124911DB29F700D811D1124911D5D
:1013C00008950E94F5090C94FB0A0E94F40A58F053
:1013D0000E94ED0A40F029F45F3F29F00C94D40AF2
:1013E00051110C942F0B0C94DA0A0E940C0B68F329
:1013F0009923B1F3552391F3951B550BBB27AA27CE
:1014000062177307840738F09F5F5F4F220F331F07
:10141000441FAA1FA9F335D00E2E3AF0E0E832D0CF
:1014200091505040E695001CCAF72BD0FE2F29D0D2
:10143000660F771F881FBB1F261737074807AB07A4
:10144000B0E809F0BB0B802DBF01FF2793585F4F19
:101450003AF09E3F510578F00C94D40A0C942F0B6F
:101460005F3FE4F3983ED4F3869577956795B795FB
:10147000F7959F5FC9F7880F911D9695879597F906
:101480000895E1E0660F771F881FBB1F621773077F
:101490008407BA0720F0621B730B840BBA0BEE1F94
:1014A00088F7E095089597FB16F40E94DD0A0C94E6
:1014B000970AE89409C097FB3EF490958095709543
:1014C00061957F4F8F4F9F4F9923A9F0F92F96E990
:1014D000BB279395F695879577956795B795F11105
:1014E000F8CFFAF4BB0F11F460FF1BC06F5F7F4FA2
:1014F0008F4F9F4F16C0882311F096E911C07723B4
:1015000021F09EE8872F762F05C0662371F096E8BC
:10151000862F70E060E02AF09A95660F771F881F8B
:10152000DAF7880F9695879597F90895E894F92F3B
:1015300096EBFF2381F0121613061406440B9395C5
:10154000F69587957795679557954040FF23B9F7AE
:101550001BC099270895882351F49850D2F7872B00
:10156000762F652F542F432F322F20E0B1F3121620
:1015700013061406440B88233AF09A95440F551F1E
:10158000661F771F881FCAF755234AF4440F551F5B
:1015900011F460FF04C06F5F7F4F8F4F9F4F880F24
:1015A0009695879597F9089597F99F6780E870E079
:1015B00060E008959FEF80EC089590958095709578
:1015C000609550954095309521953F4F4F4F5F4F17
:1015D0006F4F7F4F8F4F9F4F089500240A94161628
:1015E000170618060906089500240A941216130611
:1015F000140605060895092E0394000C11F488239F
:1016000052F0BB0F40F4BF2B11F460FF04C06F5FBA
:101610007F4F8F4F9F4F089557FD9058440F551F90
:1016200059F05F3F71F04795880F97FB991F61F064
:101630009F3F79F087950895121613061406551FDB
:10164000F2CF4695F1DF08C0161617061806991F47
:10165000F1CF86957105610508940895E894BB273C
:1016600066277727CB0197F908950E94480B0C94C1
:10167000FB0A0E94ED0A38F00E94F40A20F095233C
:1016800011F00C94D40A0C94DA0A11240C942F0B48
:101690000E940C0B70F3959FC1F3950F50E0551FFE
:1016A000629FF001729FBB27F00DB11D639FAA27B7
:1016B000F00DB11DAA1F649F6627B00DA11D661F06
:1016C000829F2227B00DA11D621F739FB00DA11D27
:1016D000621F839FA00D611D221F749F3327A00DE1
:1016E000611D231F849F600D211D822F762F6A2F7D
:1016F00011249F5750409AF0F1F088234AF0EE0FE2
:10170000FF1FBB1F661F771F881F91505040A9F70E
:101710009E3F510580F00C94D40A0C942F0B5F3F30
:10172000E4F3983ED4F3869577956795B795F7954A
:10173000E7959F5FC1F7FE2B880F911D96958795C2
:1017400097F90895EF920F931F93CF93DF93E801DA
:1017500034E047FD34E1042E000C550B57FF03C065
:10176000519541955109E32E022F242FAE010E947D
:10177000D60DCE01DF91CF911F910F91EF9008957B
:10178000CF93DF93CDB7DEB7AE014A5F5F4FFA016B
:1017900061917191AF0180916F02909170020E94EE
:1017A000D40BDF91CF9108952F923F924F925F9289
:1017B0006F927F928F929F92AF92BF92CF92DF9261
:1017C000EF92FF920F931F93CF93DF9300D000D03F
:1017D00000D01F921F92CDB7DEB77C013B018A017A
:1017E000FC0117821682838181FFDDC1CE01019643
:1017F0005C01F7019381F30193FD859193FF819142
:101800003F01882309F453C1853239F493FD859152
:1018100093FF81913F01853229F4B70190E00E9446
:101820003D10E7CF912C212C312CFFE1F31538F03E
:101830008B3211F190F4803209F1833229F137FCB7
:101840003CC020ED280F2A3050F536FE20C08AE03B
:10185000989E200D1124922E06C08D3291F0803377
:1018600071F7689430F8F30193FD859193FF8191AE
:101870003F018111DACF21C0689431F8689432F8C1
:10188000F2CF689433F8EFCF689434F8ECCFEAE005
:101890002E9E200D1124222E689435F8E4CF8E322E
:1018A00029F436FC04C1689436F8DDCF8C3619F47F
:1018B000689437F8D8CF8836B1F2982F9F7D955429
:1018C0009330E0F08336A1F18337C1F1833509F01D
:1018D00063C02801F2E04F0E511CF801C080D18096
:1018E000692D70E036FC02C06FEF7FEFC6010E94E9
:1018F00027104C01689437F882010AC00C5F1F4F13
:10190000FFE3F98388248394912C6501E89437F8E8
:1019100033FE2DC0522C8114910471F5552009F429
:1019200068CFB70180E290E00E943D105A94F6CF54
:10193000F801808189830E5F1F4FE4CF2801F2E018
:101940004F0E511CF801C080D180692D70E036FC2B
:1019500002C06FEF7FEFC6010E9432104C0182017E
:10196000D5CFB70180E290E00E943D102A94281460
:10197000190409F0B0F7CECFF60137FC859137FE98
:1019800081916F01B70190E00E943D1051105A946F
:10199000F1E08F1A9108BFCF843619F0893609F02B
:1019A00077C0F80137FE6BC06081718182819381BD
:1019B0000C5F1F4FF32DFF763F2E97FF09C09095C8
:1019C0008095709561957F4F8F4F9F4F689437F842
:1019D0002AE030E0A5010E946D10C82ECA188C2C98
:1019E000432C36FE0CC0E89440F8C91440F434FE91
:1019F00005C032FC03C0F32DFE7E4F2E892C44FE21
:101A0000AAC0FE01EC0DF11D8081803309F09CC05D
:101A1000242D297E422E842D8870582E43FCAAC086
:101A200040FEA4C09C2C821418F42C0C922C981804
:101A300044FEA6C0B70180E390E00E943D1042FE44
:101A400009C088E790E041FE02C088E590E0B70158
:101A50000E943D10C91408F49FC0CA94D12C9FEF76
:101A6000C91AD90ACA0CDB1CF60182916F01B701B1
:101A700090E00E943D10AC14BD04B1F74FCF6081DF
:101A80007181072E000C880B990B0E5F1F4F92CFB0
:101A9000D32CE894D4F82AE030E08537E1F1232D07
:101AA000297FD22E8F36A9F1F0F4883551F1F70154
:101AB000868197812B960FB6F894DEBF0FBECDBFFF
:101AC000DF91CF911F910F91FF90EF90DF90CF901A
:101AD000BF90AF909F908F907F906F905F904F904E
:101AE0003F902F900895803749F0883701F7D4FE52
:101AF00002C06894D2F820E130E00DC06894D4F8B8
:101B0000F6CF34FE03C0822F8660D82E20E132E06B
:101B100002C028E030E0F801D7FE0FC0608171817B
:101B2000828193810C5F1F4FA5010E946D10C82E0A
:101B3000CA183D2CE89437F852CF6081718190E04B
:101B400080E00E5F1F4FF0CF42FC02C0839463CF52
:101B50008394839460CF842D867809F45CCFF6CF8C
:101B6000B70180E290E00E943D1083948214C0F39C
:101B7000512C5ECF522C5818821408F459CFF8CF4C
:101B8000842D867809F466CF8BE241FE80E247FC23
:101B90008DE2B70190E05CCFB70180E390E00E9456
:101BA0003D109A9457CF8FEF9FEF84CF8F929F92E3
:101BB000AF92BF92CF92DF92EF92FF920F931F935B
:101BC000CF93DF9300D000D000D0CDB7DEB76A014D
:101BD000F22EB02E102FFBE3AF2EA01608F41BE35D
:101BE0001F5F012F27E0AE014F5F5F4F0E944F0F35
:101BF000BC018981982F9970913009F44EC09BE205
:101C0000E1FC04C09E2D9170E0FC49C05E2D507136
:101C1000E82FE87083FF55C084E0911101C083E094
:101C2000EF2DE81B8F1508F0E0E0D6018E2F20E2A3
:101C30005523C9F1992329F0D6019C93C601019639
:101C40006C0196012D5F3F4FE2FE33C08EE4D6015A
:101C50008C9391E411969C93119712968C93D901D1
:101C60008E2F90E281112AC0E20FF32FF11D108216
:101C70008EEF9FEF29960FB6F894DEBF0FBECDBF53
:101C8000DF91CF911F910F91FF90EF90DF90CF9058
:101C9000BF90AF909F908F9008959DE2B7CF90E254
:101CA000B5CF2D9381508111FCCFCE0ED11CE0E039
:101CB000C1CF8EE6D6018C9391E6CCCF9D93815017
:101CC000D1CF482F447082FF3DC084E0911101C004
:101CD00083E08F1510F4EF2DE81BD6018E2F20E244
:101CE000552309F1992329F0D6019C93C601019649
:101CF0006C0196012D5F3F4FE2FE1BC089E4D601C7
:101D00008C938EE411968C93119786E412968C93A3
:101D1000D9018E2F90E2882309F4A6CF9D9381509C
:101D2000FACF2D9381508111FCCFCE0ED11CE0E073
:101D3000D9CF89E6D6018C938EE611968C931197B4
:101D400086E6E4CF9B0177FF02C030E020E0A1E00F
:101D5000B0E0911102C0B0E0A0E0F9013196AE0F01
:101D6000BF1F8B2C912CBB2009F461C05401EFEFF5
:101D7000AE1ABE0AAA0DBB1DFA161B0619F014F006
:101D80004F2D4A1B511188C0E3FC59C07601A42F86
:101D9000B0E2A1114FC0C40ED11C992309F45BC05D
:101DA00040E0D6011196F60190836D01552309F4A8
:101DB00048C0012F060F9A81582F507184FF03C02D
:101DC000913309F4015010160CF047C0093008F0A7
:101DD00008E0EEE2FE2E5B01A01AB10885019194A5
:101DE000819491082F3F320729F4D601FC92F60125
:101DF00031966F016217730794F1021713077CF590
:101E0000DB01A21BB30BAA24A394B12CAC0EBD1E04
:101E1000AA0DBB1D11968C9121503109D601119646
:101E200028153905F4F0F60180836D01DBCFB12C64
:101E3000A12CA0CFF701B1937F01A150AACF91119E
:101E4000B0CFD601942F50E302C05D939150911111
:101E5000FCCFC40ED11C40E0ACCF01E0BACF80E390
:101E6000DBCF6217730731F4963388F4953311F49E
:101E7000552369F0F6018083FD01842F90E28111E2
:101E800008C0A40FB11D1C9290E080E0F3CE81E366
:101E9000F1CF91938150F3CF911183CF8ACF283026
:101EA00008F027E03327DA01990F311D87FD916093
:101EB00000966105710539F432602E5F3D9330E381
:101EC0002A95E1F708959F3F30F08038710561054C
:101ED00009F03C5F3C5F3D93913008F08068911DB4
:101EE000DF93CF931F930F93FF92EF92192F987F59
:101EF0009695E92F96959695E90FFF27EA5BFE4F99
:101F000099273327EE24FF24A701E70105900894C1
:101F1000079428F4360FE71EF81E491F511D660F5F
:101F2000771F881F991F0694A1F70590079428F43E
:101F3000E70EF81E491F561FC11D770F881F991FF6
:101F4000661F0694A1F70590079428F4F80E491F20
:101F5000561FC71FD11D880F991F661F771F069434
:101F6000A1F70590079420F4490F561FC71FD81FEB
:101F7000990F661F771F881F0694A9F78491109503
:101F8000177041F0D695C79557954795F794E79404
:101F90001A95C1F7ECEEF0E0689415901591359123
:101FA0006591959105907FE27395E118F10A430BD5
:101FB000560BC90BD009C0F7E10CF11E431F561F89
:101FC000C91FD01D7EF4703311F48A95E6CFE894D2
:101FD000015030F0080F0AF40027021708F4202FF0
:101FE0002395022F7A3328F079E37D932A95E9F738
:101FF00010C07D932A9589F6069497956795379535
:1020000017951794E118F10A430B560BC90BD00929
:1020100098F023957E9173957A3308F070E37C9362
:102020002013B8F77E9170617D9330F0839571E352
:102030007D9370E32A95E1F71124EF90FF900F91C3
:102040001F91CF91DF91992787FD90950895FC010D
:102050000590615070400110D8F7809590958E0FD3
:102060009F1F0895FC016150704001900110D8F746
:10207000809590958E0F9F1F08950F931F93CF9378
:10208000DF93182F092FEB018B8181FD09C01FEF12
:102090000FEF812F902FDF91CF911F910F91089516
:1020A00082FF14C02E813F818C819D8128173907C2
:1020B0003CF4E881F981CF010196998388831083EC
:1020C0008E819F8101969F838E83E3CFE885F9857A
:1020D000812F1995892BA1F3DACFFA01AA2728308D
:1020E00051F1203181F1E8946F936E7F6E5F7F4FE5
:1020F0008F4F9F4FAF4FB1E03ED0B4E03CD0670F61
:10210000781F891F9A1FA11D680F791F8A1F911DB3
:10211000A11D6A0F711D811D911DA11D20D009F403
:1021200068943F912AE0269F11243019305D319345
:10213000DEF6CF010895462F4770405D4193B3E02E
:102140000FD0C9F7F6CF462F4F70405D4A3318F0D5
:10215000495D31FD4052419302D0A9F7EACFB4E086
:10216000A6959795879577956795BA95C9F700973E
:102170006105710508959B01AC010A2E06945795DF
:10218000479537952795BA95C9F7620F731F841F36
:0A219000951FA01D0895F894FFCFDD
:10219A000000000200000000160100000000546563
:1021AA006D7065726174757261203D2025732043DC
:1021BA002C205072657373696F6E65203D202573FC
:1021CA00206850612C20556D6964697461203D2036
:0821DA0025732025250A0000F1
:00000001FF
