:100000000C94F1000C9412010C9412010C94120146
:100010000C9412010C9412010C9412010C94120114
:100020000C9412010C9412010C9412010C94120104
:100030000C9412010C9412010C9412010C941201F4
:100040000C9412010C9412010C9412010C941201E4
:100050000C9412010C9412010C9412010C941201D4
:100060000C9412010C943F050C946D050C94120134
:100070000C9412010C9412010C9412010C941201B4
:100080000C9412010C9412010C9412010C941201A4
:100090000C9412010C9412010C9412010C94120194
:1000A0000C9412010C9412010C9412010C94120184
:1000B0000C9412010C9412010C9412010C94120174
:1000C0000C9412010C9412010C9412010C94120164
:1000D0000C9412010C9412010C9412010C94120154
:1000E0000C9412010C94070F00407A10F35A00A0F0
:1000F000724E18090010A5D4E80000E876481700F1
:1001000000E40B54020000CA9A3B000000E1F50530
:10011000000080969800000040420F000000A0867A
:1001200001000000102700000000E80300000000AC
:100130006400000000000A00000000000100000050
:1001400000002C76D888DC674F0823DFC1DFAE596A
:10015000E1B1B796E5E3E453C63AE651997696E8FD
:10016000E6C28426EB898C9B62ED407C6FFCEFBC81
:100170009C9F40F2BAA56FA5F490055A2AF75C93AC
:100180006B6CF9676DC11BFCE0E40D47FEF520E6E2
:10019000B500D0ED902E0300943577050080841EC5
:1001A000080000204E0A000000C80C333333330F20
:1001B000986E12831141EF8D2114893BE65516CFBD
:1001C000FEE6DB18D1844B381BF77C1D901DA4BBC9
:1001D000E424203284725E228100C9F124ECA1E57E
:1001E0003D2711241FBECFEFD1E2DEBFCDBF00E01F
:1001F0000CBF16E0A0E0B2E0EEE1FFE200E00BBFD2
:1002000002C007900D92A439B107D9F727E0A4E9FD
:10021000B6E001C01D92AD33B207E1F70E94560E61
:100220000C948D170C94000083E390E00E9451041D
:100230000E949F050E941B070C94040C2F923F9272
:100240004F925F926F927F928F929F92AF92BF92E6
:10025000CF92DF92EF92FF920F931F93CF93DF9392
:10026000CDB7DEB7CC53D1400FB6F894DEBF0FBE8A
:10027000CDBF89E194E00E948D0484E394E00E9464
:100280008D0483E694E00E948D0480E994E00E944E
:100290008D048BEB94E00E948D0482ED94E00E942B
:1002A0008D04CE018F579F4F7C0188248394912C1D
:1002B0003E0191E0690E791E1E01E1EE2E0E311C09
:1002C0002E01F1EC4F0E511C5E012FEDA21A2EEF04
:1002D000B20A8CE196E00E948D0460E870E0CE01E5
:1002E00001960E94B0048C01892B99F388EB94E06D
:1002F0000E948D040130110529F489818F7D81359B
:1003000009F45DC2C95CDE4F19821882C753D1401F
:10031000AE01495C5E4F65E275E0CE0101960E9438
:100320003212009709F481C1D12CC12C4FE150E069
:10033000BC01C7010E942312F701178E8081882318
:1003400051F0870190E00E941212F80181938F0111
:1003500080818111F7CF6BE275E0C7010E941A120C
:10036000892B09F440C060E375E0C7010E941A12AE
:10037000892B09F438C165E375E0C7010E941A12A0
:10038000892B09F430C161E475E0C7010E941A129B
:10039000892B09F437C167E475E0C7010E941A127E
:1003A000892B09F42FC160E575E0C7010E941A127C
:1003B000892B09F44BC164E575E0C7010E941A124C
:1003C000892B09F443C16DE575E0C7010E941A123B
:1003D000892B09F4F8C16FE575E0C7010E941A1274
:1003E000892B09F4F0C1AE01495C5E4F65E275E00E
:1003F00090E080E00E943212009709F412C1F3E00D
:10040000CF16D1040CF492CF0E943908C75CDE4F9E
:10041000688379838A839B83C953D1408DE0E1E56A
:10042000F6E0D30101900D928A95E1F78AE0EEE5BE
:10043000F6E0D10101900D928A95E1F78AE0E8E6B5
:10044000F6E0D20101900D928A95E1F7CF5CDE4F84
:1004500088819981C153D1408130910509F407C148
:100460008230910509F42DC1892B79F5850122E0AF
:1004700046E0C75CDE4F688179818A819B81C953E0
:10048000D1400E94F411BF92AF9286EF95E09F9306
:100490008F931F9280E48F93FF92EF920E945912E4
:1004A000C7010E948D04BF92AF928AE096E09F93AD
:1004B0008F931F9280E28F937F926F920E945912C6
:1004C0000FB6F894DEBF0FBECDBF91E0C916D104C0
:1004D00009F483C0CD5CDE4F88819981C353D1403C
:1004E0008130910509F441C18230910509F413C1AD
:1004F000892B79F5850122E046E0C75CDE4F6881F3
:1005000079818A819B81C953D1400E94F411BF92A5
:10051000AF9286EF95E09F938F931F9280E48F9325
:10052000FF92EF920E945912C7010E948D04BF9260
:10053000AF928AE096E09F938F931F9280E28F9311
:100540007F926F920E9459120FB6F894DEBF0FBED1
:10055000CDBFF2E0CF16D10409F43FC0CB5CDE4F33
:1005600088819981C553D1408130910509F46FC1CB
:100570008230910509F441C1892B79F5850122E08A
:1005800046E0C75CDE4F688179818A819B81C953CF
:10059000D1400E94F411BF92AF9286EF95E09F93F5
:1005A0008F931F9280E48F93FF92EF920E945912D3
:1005B000C7010E948D04BF92AF928AE096E09F939C
:1005C0008F931F9280E28F937F926F920E945912B5
:1005D0000FB6F894DEBF0FBECDBFA201B101C301BB
:1005E0000E941B0D76CEF601EE0FFF1F81E391E016
:1005F0008C0F9D1FE80FF91F11821082F6013196B2
:100600006F01F1CEF601EE0FFF1F81E391E08C0F39
:100610009D1FE80FF91F91828082F60131966F01CC
:10062000E2CEC114D10409F0EFCE84E695E00E9439
:100630008D040E94A30C69E875E081E00E94C60C5D
:100640006CE975E085E00E94C60C43CEF601EE0F22
:10065000FF1F81E391E08C0F9D1FE80FF91F82E0DF
:1006600090E091838083F60131966F01BCCE0E94A9
:100670000009850122E047E00E94F411BF92AF9289
:1006800082ED95E09F938F931F9280E48F93FF926A
:10069000EF920E945912C7010E948D04BF92AF923F
:1006A00085EE95E09F938F931F9280E28F933F9208
:1006B0002F920E9459120FB6F894DEBF0FBECDBF25
:1006C00004CF0E94090B850122E046E00E94F4114C
:1006D000BF92AF9280EB95E09F938F931F9280E43F
:1006E0008F93FF92EF920E945912C7010E948D04CE
:1006F000BF92AF9282EC95E09F938F931F9280E21E
:100700008F935F924F920E9459120FB6F894DEBFFA
:100710000FBECDBFDACE0E94090B850122E046E074
:100720000E94F411BF92AF9280EB95E09F938F935C
:100730001F9280E48F93FF92EF920E945912C7019B
:100740000E948D04BF92AF9282EC95E09F938F93AD
:100750001F9280E28F935F924F920E9459120FB6C0
:10076000F894DEBF0FBECDBFF4CE0E940009850114
:1007700022E047E00E94F411BF92AF9282ED95E033
:100780009F938F931F9280E48F93FF92EF920E942A
:100790005912C7010E948D04BF92AF9285EE95E079
:1007A0009F938F931F9280E28F933F922F920E948C
:1007B00059120FB6F894DEBF0FBECDBFCACE88E186
:1007C00095E00E948D04C45CDE4F0FB6F894DEBF46
:1007D0000FBECDBFDF91CF911F910F91FF90EF9092
:1007E000DF90CF90BF90AF909F908F907F906F9051
:1007F0005F904F903F902F9008950E94090B8501C4
:1008000022E046E00E94F411BF92AF9280EB95E0A7
:100810009F938F931F9280E48F93FF92EF920E9499
:100820005912C7010E948D04BF92AF9282EC95E0ED
:100830009F938F931F9280E28F935F924F920E94BB
:1008400059120FB6F894DEBF0FBECDBFC6CE0E94C0
:100850000009850122E047E00E94F411BF92AF92A7
:1008600082ED95E09F938F931F9280E48F93FF9288
:10087000EF920E945912C7010E948D04BF92AF925D
:1008800085EE95E09F938F931F9280E28F933F9226
:100890002F920E9459120FB6F894DEBF0FBECDBF43
:1008A0009CCE9093C5008093C40086E08093C200E4
:1008B00088E98093C100789408952091950630E0EE
:1008C0002F5F3F4F2F733327422F90919406941739
:1008D000E1F3E0919506F0E0EA56F94F808320932A
:1008E00095068091C10080628093C1000895909127
:1008F000D7068091D6069817D1F3E091D606F0E09E
:10090000E852F94F80812091D60630E02F5F3F4FAB
:100910002F7333272093D6060895FC015081552369
:10092000F1F0DC0111962091950630E02F5F3F4FEA
:100930002F733327422F909194064917E1F3E091EA
:100940009506F0E0EA56F94F508320939506909172
:10095000C10090629093C1005D915111E4CF089560
:10096000CF93DF93AC0161507109B0E0A0E0A6170E
:10097000B7070CF042C02091D7069091D6062917F0
:10098000D1F3E091D606F0E0E852F94FE0812091F2
:10099000D60630E02F5F3F4F2F7333272093D606C4
:1009A000ED3059F1EA3049F1E83009F462C0EF372F
:1009B00009F45FC0ED012196A40FB51FEC932091BF
:1009C000950630E02F5F3F4F2F733327822F909192
:1009D00094068917E1F3A0919506B0E0AA56B94FA5
:1009E000EC93209395068091C10080628093C100B2
:1009F000DE01A617B7070CF4BECF4A0F5B1FFA0142
:100A000010822091950630E02F5F3F4F2F733327E0
:100A1000922F809194069817E1F3E0919506F0E00B
:100A2000EA56F94F8DE08083209395068091C100AE
:100A300080628093C1002091950630E02F5F3F4F88
:100A40002F733327922F809194069817E1F3E0914A
:100A50009506F0E0EA56F94F8AE0808320939506E8
:100A60008091C10080628093C100CD01DF91CF9160
:100A700008951A161B060CF09DCF119778CF1F9280
:100A80000F920FB60F9211240BB60F922F933F9334
:100A90008F939F93EF93FF933091C6008091D70679
:100AA00090E001968F7399272091D606281741F080
:100AB000E091D706F0E0E852F94F30838093D706F3
:100AC000FF91EF919F918F913F912F910F900BBECE
:100AD0000F900FBE0F901F9018951F920F920FB698
:100AE0000F9211240BB60F928F939F93EF93FF9366
:100AF00090919506809194069817D9F0E09194060C
:100B0000F0E0EA56F94F80818093C6008091940608
:100B100090E001968F73992780939406FF91EF914F
:100B20009F918F910F900BBE0F900FBE0F901F9053
:100B300018958091C1008F7D8093C100EFCF1092F6
:100B4000B90088E48093B800089594EA9093BC00BB
:100B50009091BC0097FFFCCF880F6170862B80932B
:100B6000BB0084E88093BC008091BC0087FFFCCF71
:100B70008091B900887F089584E98093BC0085E363
:100B80008A95F1F7000008958093BB0084E8809374
:100B9000BC008091BC0087FFFCCF8091B900887FAA
:100BA000089584EC8093BC008091BC0087FFFCCF4B
:100BB0008091BB00089584E88093BC008091BC00C4
:100BC00087FFFCCF8091BB00089594EA9093BC000E
:100BD0009091BC0097FFFCCF90E0880F991F809305
:100BE000BB0084E88093BC008091BC0087FFFCCFF1
:100BF0008091B900887F883141F094E99093BC00DE
:100C000095E39A95F1F7000008956093BB0084E89E
:100C10008093BC008091BC0087FFFCCF8091B9001D
:100C2000887F883251F74093BB0084E88093BC00F2
:100C30008091BC0087FFFCCF8091B900887F88320B
:100C4000E1F684E98093BC0085E38A95F1F7000022
:100C500080E0089594EA9093BC009091BC0097FFC7
:100C6000FCCF282F30E0220F331F2093BB0084E8F5
:100C70008093BC009091BC0097FFFCCF8091B9009D
:100C8000887F883141F094E99093BC0095E39A9570
:100C9000F1F7000008956093BB0084E88093BC00E6
:100CA0008091BC0087FFFCCF8091B900887F88329B
:100CB00041F094E99093BC00E5E3EA95F1F7000078
:100CC000089584EA8093BC008091BC0087FFFCCF2C
:100CD00021602093BB0084E88093BC008091BC001D
:100CE00087FFFCCF8091B900887F803441F094E980
:100CF0009093BC00F5E3FA95F1F70000089584E8BD
:100D00008093BC008091BC0087FFFCCF8091BB002A
:100D1000FA01808384E98093BC00F5E3FA95F1F74A
:100D2000000080E0089594EA9093BC009091BC008C
:100D300097FFFCCFE82FF0E0EE0FFF1FE093BB0022
:100D400084E88093BC009091BC0097FFFCCF809119
:100D5000B900887F883141F094E99093BC0095E315
:100D60009A95F1F7000008956093BB0084E88093A2
:100D7000BC008091BC0087FFFCCF8091B900887FC8
:100D8000883241F094E99093BC00E5E3EA95F1F7ED
:100D90000000089584EA8093BC008091BC0087FF26
:100DA000FCCFE160E093BB0084E88093BC008091BD
:100DB000BC0087FFFCCF8091B900887F803441F070
:100DC00094E99093BC00F5E3FA95F1F700000895DB
:100DD00030E0D90111971A161B06ACF460E0F0E080
:100DE000E0E074ECE40FF51F7093BC008091BC0050
:100DF00087FFFCCF8091BB0080836F5FE62FF0E020
:100E0000EA17FB077CF321503109420F531F84E896
:100E10008093BC008091BC0087FFFCCF8091BB0019
:100E2000FA01808384E98093BC00F5E3FA95F1F739
:100E3000000080E00895CF93DF9300D01F92CDB7DC
:100E4000DEB722E0AE014F5F5F4F68E886E70E94A1
:100E5000930689819A8190933C0780933B0722E017
:100E6000AE014F5F5F4F6AE886E70E949306898173
:100E70009A8190933A078093390722E0AE014F5F41
:100E80005F4F6CE886E70E94930689819A81909370
:100E900038078093370722E0AE014F5F5F4F6EE85F
:100EA00086E70E94930689819A8190933607809302
:100EB000350722E0AE014F5F5F4F60E986E70E9491
:100EC000930689819A81909334078093330722E0B7
:100ED000AE014F5F5F4F62E986E70E94930689810A
:100EE0009A81909332078093310722E0AE014F5FE1
:100EF0005F4F64E986E70E94930689819A81909307
:100F0000300780932F0722E0AE014F5F5F4F66E905
:100F100086E70E94930689819A8190932E07809399
:100F20002D0722E0AE014F5F5F4F68E986E70E9420
:100F3000930689819A8190932C0780932B0722E056
:100F4000AE014F5F5F4F6AE986E70E949306898191
:100F50009A8190932A078093290722E0AE014F5F80
:100F60005F4F6CE986E70E94930689819A8190938E
:100F700028078093270722E0AE014F5F5F4F6EE99D
:100F800086E70E94930689819A8190932607809331
:100F90002507AE014F5F5F4F61EA86E70E942A0690
:100FA00089818093240722E0AE014F5F5F4F61EE9D
:100FB00086E70E94930689819A8190932307809304
:100FC0002207AE014F5F5F4F63EE86E70E942A065D
:100FD000898180932107AE014C5F5F4F64EE86E705
:100FE0000E942A06AE014D5F5F4F65EE86E70E94C4
:100FF0002A06AE014F5F5F4F66EE86E70E942A0623
:101000002B818C8130E1839FC0011124322F3F70EE
:10101000832B9093200780931F07898130E1839F62
:10102000C001112422952F70822B90931E0780936C
:101030001D07AE014F5F5F4F67EE86E70E942A06ED
:10104000898180931C0741E062EF86E70E94E505F5
:1010500047E264EF86E70E94E50540EA65EF86E730
:101060000E94E5050F900F900F900F90DF91CF91A8
:1010700008958F929F92AF92BF92CF92DF92EF929C
:10108000FF92CF93DF9300D0CDB7DEB723E0AE0160
:101090004F5F5F4F6AEF86E70E949306898190E079
:1010A000B0E0A0E02CE0880F991FAA1FBB1F2A9573
:1010B000D1F74A8150E070E060E0440F551F661F91
:1010C000771F440F551F661F771F440F551F661F5C
:1010D000771F440F551F661F771F842B952BA62B58
:1010E000B72B2B8122952F70822B40913B0750917B
:1010F0003C0770E060E06C017D01F4E0F594E7945A
:10110000D794C794FA95D1F7C41AD50AE60AF70A14
:1011100023E0B595A795979587952A95D1F7440F24
:10112000551F661F771F4C015D01841A950AA60A98
:10113000B70AA5019401A0913907B0913A070E941E
:10114000990E4B015C014BE0B594A794979487945A
:101150004A95D1F7A7019601C701B6010E947E0EFC
:101160009B01AC016CE055954795379527956A959D
:10117000D1F7A0913707B09138070E94990EEEE0A1
:101180009595879577956795EA95D1F7860E971E81
:10119000A81EB91E8092180790921907A0921A07EC
:1011A000B0921B07C501B401660F771F881F991FF6
:1011B000660F771F881F991F680D791D8A1D9B1D5B
:1011C00060587F4F8F4F9F4F672F782F892F992718
:1011D00087FD9A950E94AD1020E030E048EC52E483
:1011E0000E9433100F900F900F90DF91CF91FF90DE
:1011F000EF90DF90CF90BF90AF909F908F90089529
:101200002F923F924F925F926F927F928F929F9216
:10121000AF92BF92CF92DF92EF92FF920F931F9304
:10122000CF93DF93CDB7DEB76A970FB6F894DEBFE2
:101230000FBECDBF23E0AE014F5F5F4F67EF86E784
:101240000E9493062981288F8A81898F2B812A8F7A
:101250008091180790911907A0911A07B0911B0768
:101260006C017D01FF0CCC08DC2C76019C01AD01EA
:101270006C2D7C2D8C2D9C2D345F414051096109D2
:101280007109810991092C833D834E835F836887AF
:1012900079878A879B8759016A017B018C010E94AB
:1012A000A10E2C873D874E875F876C8B7D8B8E8B45
:1012B0009F8B3091340720913307932F990F990B0F
:1012C000492F592F692F792F892F0E94A10E0CE0E9
:1012D0000E94D00F922E832E742E652E562E472EEE
:1012E000382E292E3091320720913107932F990FF4
:1012F000990BAC84BD84CE84DF84EC88FD880E8994
:101300001F89492F592F692F792F892F0E94A10EEC
:1013100008E00E94E90FA92CB82CC72CD62CE52C8C
:10132000F42C032D122D0E94061070588F4F9F4FE2
:1013300020903507309036075101C12CD12CE12C7B
:10134000F12C00E010E00E94A10E01E20E94E90FE2
:10135000288B398B4A8B5B8B362E872E982E292E25
:10136000A0E00E94181009F450C130912C07209180
:101370002B07932F990F990BAC84BD84CE84DF8407
:10138000EC88FD880E891F89492F592F692F792FE5
:10139000892F0E94A10E2C873D872A013B018E8751
:1013A0009F8730912E0720912D07932F990F990B2E
:1013B000AC80BD80CE80DF80E884F9840A851B85FF
:1013C000492F592F692F792F892F0E94A10E01E1F2
:1013D0000E94D00FAC84BD84620173010E851F850D
:1013E0000E94061059016A017B018C83192F298DF7
:1013F000822F90E0B0E0A0E0880F991FAA1FBB1FCA
:10140000880F991FAA1FBB1F880F991FAA1FBB1FF8
:10141000880F991FAA1FBB1F2A8D22952F70822B20
:10142000288D422F50E070E060E0ECE0440F551F43
:10143000661F771FEA95D1F7482B592B6A2B7B2B18
:1014400080E090E0A0E1B0E0841B950BA60BB70B09
:101450002C013D01770C4408542C32019C01AD0154
:10146000642D742D842D942D0FE10E94D00FB22F86
:10147000A32FF42FE52F2B01782E692E3091300702
:1014800020912F07932F990F990B492F592F692FCF
:10149000792F892F03E20E94D00F0C810E94061041
:1014A00059016A017B018C012B2F3A2F4F2F5E2FA0
:1014B000B201872D962D0E940F10A5E3AA2EBCE045
:1014C000BB2EC12CD12CE12CF12C00E010E00E94AD
:1014D000A10EA888B988CA88DB88E32CF82C092DCE
:1014E000122D0E94FB0E2C833D834E835F83688701
:1014F00079878A879B870DE00E94E90F922E832EC1
:10150000742E652E562E472E382E292E3091260702
:1015100020912507932F990F990BA92CB82CC72C34
:10152000D62CE52CF42C032D122D492F592F692F81
:10153000792F892F0E94A10E0E94A10E09E10E941D
:10154000E90FAC80BD80CE80DF80E884F9840A8515
:101550001B850E94061019012A013B014C013091A4
:10156000280720912707932F990F990B492F592F5F
:10157000692F792F892F0E94A10E03E10E94E90FA4
:1015800059016A017B018C019101A201B301C401DF
:101590000E94061008E00E94E90F59016A017B01D0
:1015A000E82F192F30912A0720912907932F990F9F
:1015B000990B492F592F692F792F892F04E00E9409
:1015C000D00F0E2F0E9406100E94A51020E030E0E0
:1015D00048EC56E40E9433106A960FB6F894DEBFCA
:1015E0000FBECDBFDF91CF911F910F91FF90EF9074
:1015F000DF90CF90BF90AF909F908F907F906F9033
:101600005F904F903F902F90089560E070E0CB0185
:10161000E3CF4F925F926F927F928F929F92AF92A1
:10162000BF92CF92DF92EF92FF92CF93DF931F9200
:101630001F92CDB7DEB722E0AE014F5F5F4F6DEF77
:1016400086E70E949306C980DA80DC24CD24DC245E
:10165000F12CE12C8090180790901907A0901A07A0
:10166000B0901B078CE2981A81E0A80AB1084EE0FE
:10167000CC0CDD1CEE1CFF1C4A95D1F780911F0796
:1016800090912007092E000CAA0BBB0B54E1880F88
:10169000991FAA1FBB1F5A95D1F7C81AD90AEA0A7F
:1016A000FB0AA0911D07B0911E07A50194010E949D
:1016B000990EC61AD70AE80AF90A80E4D80EE11C86
:1016C000F11C6FE0F594E794D794C7946A95D1F72D
:1016D000A0912107B0E00E948E0E2B013C017BE01F
:1016E00075946794579447947A95D1F780E8580E8B
:1016F000611C711CA0911C070A2E000CBB0B0E94E0
:10170000990EEAE09595879577956795EA95D1F7D3
:10171000A30192010E947E0E9B01AC01FAE0559557
:10172000479537952795FA95D1F7405E5F4FA09181
:101730002207B09123070E94990E705E8F4F9F4F32
:10174000AEE09595879577956795AA95D1F7A7010E
:1017500096010E947E0E6B017C01BFE095958795F6
:1017600077956795BA95D1F79B01AC010E947E0EE3
:101770009B01AC0187E055954795379527958A954C
:10178000D1F7A0912407B0E00E948E0E24E0959539
:101790008795779567952A95D1F7C61AD70AE80AEB
:1017A000F90A81E0C816D104E10489E1F8062CF0B9
:1017B000C12CD12CE12C39E1F32EC701B60197FFE2
:1017C00003C060E070E0CB012CE09595879577959C
:1017D00067952A95D1F70E94AD1020E030E040E8EF
:1017E0005AE30E9487110F900F90DF91CF91FF90E5
:1017F000EF90DF90CF90BF90AF909F908F907F90B1
:101800006F905F904F9008951F93CF93DF932FEFCA
:1018100081EE94E0215080409040E1F700C000004C
:101820004EEA60E08CE30E94E50545ED60E08CE364
:101830000E94E50540E860E08CE30E94E50548EA87
:1018400060E08CE30E94E5054FE360E08CE30E94DA
:10185000E50543ED60E08CE30E94E50540E060E0D3
:101860008CE30E94E50540E460E08CE30E94E5051E
:101870004DEA60E08CE30E94E5054BE860E08CE314
:101880000E94E50541EA60E08CE30E94E50548EC32
:1018900060E08CE30E94E5054AED60E08CE30E9485
:1018A000E50542E160E08CE30E94E50541E860E087
:1018B0008CE30E94E50540E860E08CE30E94E505CA
:1018C00049ED60E08CE30E94E50542E260E08CE3D4
:1018D0000E94E5054BED60E08CE30E94E50545E3E1
:1018E00060E08CE30E94E50544EA60E08CE30E943E
:1018F000E50546EA60E08CE30E94E5054FEA60E01A
:101900008CE30E94E50510EB412F60E08CE30E9420
:10191000E50542E060E08CE30E94E50540E160E01F
:101920008CE30E94E505C0E8D0E040E060E48CE391
:101930000E94E5052197C9F71F5F183B29F7DF9142
:10194000CF911F9108951F93CF93DF9310EB412FF9
:1019500060E08CE30E94E50542E060E08CE30E94D9
:10196000E50540E160E08CE30E94E505C0E8D0E0D9
:1019700040E060E48CE30E94E5052197C9F71F5F12
:10198000183B29F7DF91CF911F910895EF92FF92B5
:101990000F931F93CF93DF93883038F0DF91CF916F
:1019A0001F910F91FF90EF9008957B0140EB480F3E
:1019B00060E08CE30E94E50542E060E08CE30E9479
:1019C000E50540E160E08CE30E94E505F701C08198
:1019D000CC2321F3FFEFEF1AFF0A80EE8C0F8F3537
:1019E00038F52C2F2052330BC901E901CC0FDD1F34
:1019F000CC0FDD1FC80FD91FC050DE4F8E010B5F0B
:101A00001F4F499160E48CE30E94E5050C171D0708
:101A1000C1F740E060E48CE30E94E505F701C19165
:101A20007F01CC2309F4BACF80EE8C0F8F35C8F23A
:101A3000CBE9D0E0E1CF8F929F92AF92BF92CF924D
:101A4000DF92EF92FF920F931F93CF93DF935C018E
:101A50007B014A0110EB412F60E08CE30E94E50519
:101A600042E060E08CE30E94E50540E160E08CE349
:101A70000E94E505C0E8D0E040E060E48CE30E940D
:101A8000E5052197C9F71F5F183B29F741EB60E097
:101A90008CE3A114B10409F4D3C00E94E50542E02F
:101AA00060E08CE30E94E50540E160E08CE30E9489
:101AB000E505F501C081CC2359F16501FFEFCF1A8F
:101AC000DF0A80EE8C0F8F3508F0B4C02C2F205227
:101AD000330BE901CC0FDD1FCC0FDD1FC20FD31F6D
:101AE000C050DE4F5E0135E0A30EB11C499160E4A9
:101AF0008CE30E94E505AC16BD06C1F740E060E44A
:101B00008CE30E94E505F601C1916F01C111D9CFA7
:101B100043EB60E08CE3E114F10409F4B5C00E94EA
:101B2000E50542E060E08CE30E94E50540E160E00D
:101B30008CE30E94E505F701C081CC2351F1FFEF52
:101B4000EF1AFF0A80EE8C0F8F3508F076C02C2F2D
:101B50002052330BE901CC0FDD1FCC0FDD1FC20F6C
:101B6000D31FC050DE4F6E0135E0C30ED11C49912A
:101B700060E48CE30E94E505CC16DD06C1F740E089
:101B800060E48CE30E94E505F701C1917F01C1117A
:101B9000D9CF45EB60E08CE38114910409F462C075
:101BA0000E94E50542E060E08CE30E94E50540E12B
:101BB00060E08CE30E94E505F401C081CC2351F183
:101BC00084010F5F1F4F80EE8C0F8F3580F52C2F17
:101BD0002052330BC901E901CC0FDD1FCC0FDD1FF3
:101BE000C80FD91FC050DE4F7E0135E0E30EF11C57
:101BF000499160E48CE30E94E505CE15DF05C1F74D
:101C000040E060E48CE30E94E505F801C1918F019A
:101C1000C111D9CFDF91CF911F910F91FF90EF901C
:101C2000DF90CF90BF90AF909F908F900895CBE9B9
:101C3000D0E0D8CFCBE9D0E053CFCBE9D0E091CF03
:101C40000E94E50542E060E08CE30E94E50540E18A
:101C500060E08CE30E94E505C4E522E7A22E26E0C1
:101C6000B22E2BCF0E94E50542E060E08CE30E949B
:101C7000E50540E160E08CE30E94E505C5E58AE802
:101C8000882E86E0982E9CCF0E94E50542E060E019
:101C90008CE30E94E50540E160E08CE30E94E505ED
:101CA000C0E59FE7E92E96E0F92E49CF0E94140186
:101CB0000E94A30C6BED73E080E00E94C60C6BEEFB
:101CC00073E084E00E94C60C6EEF73E085E00E9432
:101CD000C60C0E941E010E94A30C67E074E083E022
:101CE0000E94C60C2FEF8BE792E921508040904074
:101CF000E1F700C000000E94A30CFFCFDB018F932F
:101D00009F930E948E0EBF91AF91A29F800D911D57
:101D1000A39F900DB29F900D112408950E9424104E
:101D2000A59F900DB49F900DA49F800D911D11242F
:101D30000895B7FF0C948E0E0E948E0E821B930B9B
:101D40000895DF93CF931F930F939A9DF02D219FBA
:101D5000F00D8B9DF00D8A9DE02DF10D039FF00D90
:101D6000029FE00DF11D4E9DE00DF11D5E9DF00DF9
:101D70004F9DF00D7F936F93BF92AF925F934F9300
:101D8000D5010E9424108B01AC01D7010E942410C0
:101D9000EB01E80FF91FD6010E94F00E2F913F9141
:101DA000D6010E942410C60FD71FE81FF91FAF915C
:101DB000BF910E94F00E2F913F910E942410C60FF8
:101DC000D71FE81FF91FD6010E942410E60FF71F46
:101DD0009801BE01CF010F911F91CF91DF9108951E
:101DE0000E942410460F571FC81FD91F08F43196B0
:101DF0000895689401C0E894F92FF12B12F00C9427
:101E00002D0FA0E0B0E0E7E0FFE00C949F0F092E5B
:101E1000059422F40E94890F112392F4F0E80F2612
:101E2000FFEFE094F09400951095B094C094D09496
:101E3000A194BF0ACF0ADF0AEF0AFF0A0F0B1F0B9C
:101E40000E94380F07FC0E94890FCDB7DEB7ECE087
:101E50000C94BB0F689401C0E8948F929F92CF932B
:101E6000DF930E94380FDF91CF919F908F9008955C
:101E700088249924F401E401B0E49F93AA279A15D9
:101E80008B049C04ED05FE05CF05D007A10798F44F
:101E9000AD2FDC2FCF2FFE2FE92D982C892E982FD8
:101EA000872F762F652F542F432F322F2227B8509C
:101EB00031F7BF9127C01B2EBF91BB27220F331FC5
:101EC000441F551F661F771F881F991F881C991C68
:101ED000EE1FFF1FCC1FDD1FAA1FBB1F8A149B0410
:101EE000EC05FD05CE05DF05A007B10748F08A180F
:101EF0009B08EC09FD09CE09DF09A00BB10B21609D
:101F00001A94E1F62EF49401AF01BE01CD01000C4C
:101F10000895609570958095909530954095509571
:101F200021953F4F4F4F5F4F6F4F7F4F8F4F9F4FC9
:101F300008952F923F924F925F926F927F928F926D
:101F40009F92AF92BF92CF92DF92EF92FF920F9348
:101F50001F93CF93DF93CDB7DEB7CA1BDB0B0FB652
:101F6000F894DEBF0FBECDBF19942A8839884888FF
:101F70005F846E847D848C849B84AA84B984C884A5
:101F8000DF80EE80FD800C811B81AA81B981CE0F9C
:101F9000D11D0FB6F894DEBF0FBECDBFED01089581
:101FA000002E083090F0982F872F762F652F542F12
:101FB000432F322F22270850F4CF220F331F441F04
:101FC000551F661F771F881F991F0A95B2F7002DAE
:101FD000089597FD1094002E083098F00850232F94
:101FE000342F452F562F672F782F892F912DF4CF1F
:101FF0001594979587957795679557954795379554
:1020000027950A95AAF71124002D08952A0D3B1D46
:102010004C1D5D1D6E1D7F1D801F911F08952A1987
:102020003B094C095D096E097F09800B910B0895EE
:102030000024A7FD00942A173005400550056005CF
:102040007005800590050895A29FB001B39FC0015F
:10205000A39F700D811D1124911DB29F700D811DD4
:102060001124911D08950E9447100C944D110E9457
:10207000461158F00E943F1140F029F45F3F29F0CB
:102080000C94261151110C9481110C942C110E9466
:102090005E1168F39923B1F3552391F3951B550B0A
:1020A000BB27AA2762177307840738F09F5F5F4F2B
:1020B000220F331F441FAA1FA9F335D00E2E3AF06A
:1020C000E0E832D091505040E695001CCAF72BD082
:1020D000FE2F29D0660F771F881FBB1F26173707D3
:1020E0004807AB07B0E809F0BB0B802DBF01FF2705
:1020F00093585F4F3AF09E3F510578F00C942611AB
:102100000C9481115F3FE4F3983ED4F38695779564
:102110006795B795F7959F5FC9F7880F911D9695BD
:10212000879597F90895E1E0660F771F881FBB1F19
:10213000621773078407BA0720F0621B730B840BC6
:10214000BA0BEE1F88F7E095089597FB16F40E94EE
:102150002F110C94E910E89409C097FB3EF4909578
:102160008095709561957F4F8F4F9F4F9923A9F070
:10217000F92F96E9BB279395F695879577956795FF
:10218000B795F111F8CFFAF4BB0F11F460FF1BC043
:102190006F5F7F4F8F4F9F4F16C0882311F096E9D6
:1021A00011C0772321F09EE8872F762F05C0662384
:1021B00071F096E8862F70E060E02AF09A95660F3D
:1021C000771F881FDAF7880F9695879597F90895F6
:1021D000E894F92F96EBFF2381F0121613061406EC
:1021E000440B9395F695879577956795579540405D
:1021F000FF23B9F71BC099270895882351F49850FD
:10220000D2F7872B762F652F542F432F322F20E0C4
:10221000B1F3121613061406440B88233AF09A956C
:10222000440F551F661F771F881FCAF755234AF4AE
:10223000440F551F11F460FF04C06F5F7F4F8F4F35
:102240009F4F880F9695879597F9089597F99F67FF
:1022500080E870E060E008959FEF80EC089590952D
:1022600080957095609550954095309521953F4F9C
:102270004F4F5F4F6F4F7F4F8F4F9F4F08950024F9
:102280000A941616170618060906089500240A94DB
:1022900012161306140605060895092E0394000C61
:1022A00011F4882352F0BB0F40F4BF2B11F460FFF0
:1022B00004C06F5F7F4F8F4F9F4F089557FD905819
:1022C000440F551F59F05F3F71F04795880F97FBFA
:1022D000991F61F09F3F79F08795089512161306B4
:1022E0001406551FF2CF4695F1DF08C016161706E3
:1022F0001806991FF1CF8695710561050894089518
:10230000E894BB2766277727CB0197F908950E94A9
:102310009A110C944D110E943F1138F00E94461101
:1023200020F0952311F00C9426110C942C111124FB
:102330000C9481110E945E1170F3959FC1F3950F6B
:1023400050E0551F629FF001729FBB27F00DB11D39
:10235000639FAA27F00DB11DAA1F649F6627B00DC9
:10236000A11D661F829F2227B00DA11D621F739FB2
:10237000B00DA11D621F839FA00D611D221F749FC0
:102380003327A00D611D231F849F600D211D822F07
:10239000762F6A2F11249F5750409AF0F1F088232E
:1023A0004AF0EE0FFF1FBB1F661F771F881F91505B
:1023B0005040A9F79E3F510580F00C9426110C94D3
:1023C00081115F3FE4F3983ED4F386957795679546
:1023D000B795F795E7959F5FC1F7FE2B880F911D85
:1023E0009695879597F90895EF920F931F93CF9342
:1023F000DF93E80134E047FD34E1042E000C550B77
:1024000057FF03C0519541955109E32E022F242F08
:10241000AE010E949814CE01DF91CF911F910F91D0
:10242000EF9008959111089581548A5108F4805EC7
:10243000855A0895FB01DC018D91019080190110EE
:10244000D9F3990B0895FB01DC014150504048F04D
:1024500001900D920020C9F701C01D9241505040DB
:10246000E0F70895FA01A191B081009719F410974F
:10247000E1F0CD01DC01CD010D90002011F4C0018F
:1024800013C0FB012191222319F02015D9F7F3CFB6
:10249000FB012191201519F41E92119606C02223EA
:1024A000C1F70D900020A1F7D001FA01A193B083EC
:1024B00008950F931F93CF93DF93CDB7DEB72E9779
:1024C0000FB6F894DEBF0FBECDBF0E891F89888D71
:1024D000998D26E02C831A83098397FF02C080E040
:1024E00090E801979E838D83AE01445E5F4F6A8DB5
:1024F0007B8DCE0101960E9496124D815E8157FD23
:102500000AC02F813885421753070CF49A01020F35
:10251000131FF80110822E960FB6F894DEBF0FBE7F
:10252000CDBFDF91CF911F910F9108952F923F92D0
:102530004F925F926F927F928F929F92AF92BF92D3
:10254000CF92DF92EF92FF920F931F93CF93DF937F
:1025500000D000D000D01F921F92CDB7DEB77C0113
:102560003B018A01FC0117821682838181FFDDC154
:10257000CE0101965C01F7019381F30193FD8591F2
:1025800093FF81913F01882309F453C1853239F4C7
:1025900093FD859193FF81913F01853229F4B70125
:1025A00090E00E94FF16E7CF912C212C312CFFE107
:1025B000F31538F08B3211F190F4803209F1833247
:1025C00029F137FC3CC020ED280F2A3050F536FEAB
:1025D00020C08AE0989E200D1124922E06C08D32D4
:1025E00091F0803371F7689430F8F30193FD859191
:1025F00093FF81913F018111DACF21C0689431F8B6
:10260000689432F8F2CF689433F8EFCF689434F8D6
:10261000ECCFEAE02E9E200D1124222E689435F88E
:10262000E4CF8E3229F436FC04C1689436F8DDCF4D
:102630008C3619F4689437F8D8CF8836B1F2982FD1
:102640009F7D95549330E0F08336A1F18337C1F13B
:10265000833509F063C02801F2E04F0E511CF801E8
:10266000C080D180692D70E036FC02C06FEF7FEF33
:10267000C6010E94E9164C01689437F882010AC02D
:102680000C5F1F4FFFE3F98388248394912C65012D
:10269000E89437F833FE2DC0522C8114910471F563
:1026A000552009F468CFB70180E290E00E94FF1640
:1026B0005A94F6CFF801808189830E5F1F4FE4CFD3
:1026C0002801F2E04F0E511CF801C080D180692D25
:1026D00070E036FC02C06FEF7FEFC6010E94F41677
:1026E0004C018201D5CFB70180E290E00E94FF1635
:1026F0002A942814190409F0B0F7CECFF60137FC5C
:10270000859137FE81916F01B70190E00E94FF161D
:1027100051105A94F1E08F1A9108BFCF843619F006
:10272000893609F077C0F80137FE6BC0608171818E
:10273000828193810C5F1F4FF32DFF763F2E97FF11
:1027400009C090958095709561957F4F8F4F9F4FF1
:10275000689437F82AE030E0A5010E942F17C82EB0
:10276000CA188C2C432C36FE0CC0E89440F8C914CF
:1027700040F434FE05C032FC03C0F32DFE7E4F2E24
:10278000892C44FEAAC0FE01EC0DF11D808180332E
:1027900009F09CC0242D297E422E842D8870582E4D
:1027A00043FCAAC040FEA4C09C2C821418F42C0C3C
:1027B000922C981844FEA6C0B70180E390E00E94D6
:1027C000FF1642FE09C088E790E041FE02C088E59E
:1027D00090E0B7010E94FF16C91408F49FC0CA9484
:1027E000D12C9FEFC91AD90ACA0CDB1CF6018291C1
:1027F0006F01B70190E00E94FF16AC14BD04B1F761
:102800004FCF60817181072E000C880B990B0E5FF2
:102810001F4F92CFD32CE894D4F82AE030E08537CC
:10282000E1F1232D297FD22E8F36A9F1F0F48835DE
:1028300051F1F701868197812B960FB6F894DEBF90
:102840000FBECDBFDF91CF911F910F91FF90EF9001
:10285000DF90CF90BF90AF909F908F907F906F90C0
:102860005F904F903F902F900895803749F08837C0
:1028700001F7D4FE02C06894D2F820E130E00DC028
:102880006894D4F8F6CF34FE03C0822F8660D82E29
:1028900020E132E002C028E030E0F801D7FE0FC0AE
:1028A00060817181828193810C5F1F4FA5010E941D
:1028B0002F17C82ECA183D2CE89437F852CF6081E4
:1028C000718190E080E00E5F1F4FF0CF42FC02C0AC
:1028D000839463CF8394839460CF842D867809F4A6
:1028E0005CCFF6CFB70180E290E00E94FF168394A0
:1028F0008214C0F3512C5ECF522C5818821408F465
:1029000059CFF8CF842D867809F466CF8BE241FE4B
:1029100080E247FC8DE2B70190E05CCFB70180E335
:1029200090E00E94FF169A9457CF8FEF9FEF84CFCD
:102930008F929F92AF92BF92CF92DF92EF92FF92CF
:102940000F931F93CF93DF9300D000D000D0CDB76B
:10295000DEB76A01F22EB02E102FFBE3AF2EA016C9
:1029600008F41BE31F5F012F27E0AE014F5F5F4FAD
:102970000E941116BC018981982F9970913009F439
:102980004EC09BE2E1FC04C09E2D9170E0FC49C06A
:102990005E2D5071E82FE87083FF55C084E09111DF
:1029A00001C083E0EF2DE81B8F1508F0E0E0D601B1
:1029B0008E2F20E25523C9F1992329F0D6019C934B
:1029C000C60101966C0196012D5F3F4FE2FE33C0B8
:1029D0008EE4D6018C9391E411969C9311971296F4
:1029E0008C93D9018E2F90E281112AC0E20FF32F30
:1029F000F11D10828EEF9FEF29960FB6F894DEBF7F
:102A00000FBECDBFDF91CF911F910F91FF90EF903F
:102A1000DF90CF90BF90AF909F908F9008959DE2F0
:102A2000B7CF90E2B5CF2D9381508111FCCFCE0E60
:102A3000D11CE0E0C1CF8EE6D6018C9391E6CCCFDD
:102A40009D938150D1CF482F447082FF3DC084E0D8
:102A5000911101C083E08F1510F4EF2DE81BD60112
:102A60008E2F20E2552309F1992329F0D6019C935A
:102A7000C60101966C0196012D5F3F4FE2FE1BC01F
:102A800089E4D6018C938EE411968C93119786E499
:102A900012968C93D9018E2F90E2882309F4A6CF49
:102AA0009D938150FACF2D9381508111FCCFCE0E92
:102AB000D11CE0E0D9CF89E6D6018C938EE6119641
:102AC0008C93119786E6E4CF9B0177FF02C030E03C
:102AD00020E0A1E0B0E0911102C0B0E0A0E0F90177
:102AE0003196AE0FBF1F8B2C912CBB2009F461C017
:102AF0005401EFEFAE1ABE0AAA0DBB1DFA161B0653
:102B000019F014F04F2D4A1B511188C0E3FC59C035
:102B10007601A42FB0E2A1114FC0C40ED11C99239D
:102B200009F45BC040E0D6011196F60190836D0177
:102B3000552309F448C0012F060F9A81582F507170
:102B400084FF03C0913309F4015010160CF047C004
:102B5000093008F008E0EEE2FE2E5B01A01AB10891
:102B600085019194819491082F3F320729F4D60171
:102B7000FC92F60131966F016217730794F1021708
:102B800013077CF5DB01A21BB30BAA24A394B12C81
:102B9000AC0EBD1EAA0DBB1D11968C9121503109A2
:102BA000D601119628153905F4F0F60180836D01E0
:102BB000DBCFB12CA12CA0CFF701B1937F01A150A5
:102BC000AACF9111B0CFD601942F50E302C05D93EC
:102BD00091509111FCCFC40ED11C40E0ACCF01E06C
:102BE000BACF80E3DBCF6217730731F4963388F4F2
:102BF000953311F4552369F0F6018083FD01842F8C
:102C000090E2811108C0A40FB11D1C9290E080E0F9
:102C1000F3CE81E3F1CF91938150F3CF911183CF24
:102C20008ACF283008F027E03327DA01990F311DC9
:102C300087FD916000966105710539F432602E5F61
:102C40003D9330E32A95E1F708959F3F30F08038B7
:102C50007105610509F03C5F3C5F3D93913008F0E0
:102C60008068911DDF93CF931F930F93FF92EF9294
:102C7000192F987F9695E92F96959695E90FFF273E
:102C8000EE5BFE4F99273327EE24FF24A701E701CF
:102C900005900894079428F4360FE71EF81E491F84
:102CA000511D660F771F881F991F0694A1F7059085
:102CB000079428F4E70EF81E491F561FC11D770F11
:102CC000881F991F661F0694A1F70590079428F4A2
:102CD000F80E491F561FC71FD11D880F991F661F69
:102CE000771F0694A1F70590079420F4490F561F0B
:102CF000C71FD81F990F661F771F881F0694A9F753
:102D000084911095177041F0D695C79557954795C2
:102D1000F794E7941A95C1F7E8EEF0E068941590FF
:102D2000159135916591959105907FE27395E11824
:102D3000F10A430B560BC90BD009C0F7E10CF11E89
:102D4000431F561FC91FD01D7EF4703311F48A959E
:102D5000E6CFE894015030F0080F0AF4002702177C
:102D600008F4202F2395022F7A3328F079E37D93FE
:102D70002A95E9F710C07D932A9589F606949795D0
:102D80006795379517951794E118F10A430B560B81
:102D9000C90BD00998F023957E9173957A3308F08A
:102DA00070E37C932013B8F77E9170617D9330F0CF
:102DB000839571E37D9370E32A95E1F71124EF90F9
:102DC000FF900F911F91CF91DF91992787FD9095EB
:102DD0000895FC010590615070400110D8F780956E
:102DE00090958E0F9F1F0895FC01615070400190D7
:102DF0000110D8F7809590958E0F9F1F08950F931F
:102E00001F93CF93DF93182F092FEB018B8181FD47
:102E100009C01FEF0FEF812F902FDF91CF911F91EE
:102E20000F91089582FF14C02E813F818C819D8176
:102E3000281739073CF4E881F981CF01019699837D
:102E4000888310838E819F8101969F838E83E3CF39
:102E5000E885F985812F1995892BA1F3DACFFA013D
:102E6000AA27283051F1203181F1E8946F936E7FC9
:102E70006E5F7F4F8F4F9F4FAF4FB1E03ED0B4E0BA
:102E80003CD0670F781F891F9A1FA11D680F791FFB
:102E90008A1F911DA11D6A0F711D811D911DA11D0C
:102EA00020D009F468943F912AE0269F112430191C
:102EB000305D3193DEF6CF010895462F4770405DB7
:102EC0004193B3E00FD0C9F7F6CF462F4F70405D66
:102ED0004A3318F0495D31FD4052419302D0A9F7C1
:102EE000EACFB4E0A6959795879577956795BA95BB
:102EF000C9F700976105710508959B01AC010A2E81
:102F000006945795479537952795BA95C9F7620F57
:0E2F1000731F841F951FA01D0895F894FFCF16
:102F1E00000000000000005F000000070007001422
:102F2E007F147F14242A7F2A1223130864623649E1
:102F3E005522500005030000001C224100004122D2
:102F4E001C0014083E081408083E08080050300003
:102F5E00000808080808006060000020100804023D
:102F6E003E5149453E00427F400042615149462153
:102F7E0041454B311814127F1027454545393C4ABF
:102F8E00494930017109050336494949360649490F
:102F9E00291E003636000000563600000814224165
:102FAE0000141414141400412214080201510906CD
:102FBE00324979413E7E1111117E7F494949363E93
:102FCE00414141227F4141221C7F494949417F09AC
:102FDE000909013E4149497A7F0808087F00417F6F
:102FEE0041002040413F017F081422417F40404074
:102FFE00407F020C027F7F0408107F3E4141413E1C
:10300E007F090909063E4151215E7F09192946466D
:10301E004949493101017F01013F4040403F1F2096
:10302E0040201F3F4038403F631408146307087068
:10303E0008076151494543007F41410002040810D1
:10304E00200041417F000402010204404040404004
:10305E00000102040020545454787F484444383808
:10306E0044444420384444487F3854545418087E0D
:10307E000901020C5252523E7F0804047800447D2E
:10308E0040002040443D007F1028440000417F4016
:10309E00007C041804787C080404783844444438CE
:1030AE007C14141408081414187C7C0804040848B2
:1030BE0054545420043F4440203C4040207C1C206B
:1030CE0040201C3C4030403C44281028440C5050BA
:1030DE00503C4464544C44000836410000007F00CC
:1030EE00000041360800100808100820202020207B
:1030FE00202057454C434F4D452100557365207494
:10310E00686520504320746F2073656E6400636F92
:10311E006D6D616E647300202020202020474F4F7C
:10312E004442594521203A29000D0A2D2D2D2053B8
:10313E00656E736F722052656164696E67202D2D06
:10314E002D0D0A002D2920546F20726561642074A4
:10315E0068652074656D70657261747572652C207A
:10316E00747970652022726561642074656D7022B9
:10317E000D0A002D2920546F207265616420746839
:10318E00652070726573737572652C207479706525
:10319E00202272656164207072657373220D0A00BD
:1031AE002D2920546F207265616420746865206833
:1031BE00756D69646974792C20747970652022723A
:1031CE006561642068756D220D0A002D2920546FEB
:1031DE0020657869742C2074797065202271220D17
:1031EE000A00497420697320706F737369626C658D
:1031FE0020746F2072656164206D756C7469706CDB
:10320E00652076616C7565732C20652E672E3A20CD
:10321E0022726561642074656D70207072657373BF
:10322E002068756D220D0A0045786974696E672EE7
:10323E002E2E0D0A0020092C3B3A007265616400A7
:10324E0074656D700074656D70657261747572650C
:10325E0000707265737300707265737375726500BA
:10326E0068756D0068756D696469747900710071B7
:10327E0075697400496E76616C696420636F6D6D5B
:10328E00616E642E20506C656173652074727920B6
:10329E00616761696E2E0D0A00202020494E56414D
:1032AE004C494420434F4D4D414E44002020205068
:1032BE006C656173652074727920616761696E0057
:1032CE0048756D69646974793A2025732025250D3A
:1032DE000A0048756D69646974793A202573202552
:1032EE00250050726573737572653A2025732068D8
:1032FE0050610D0A0050726573737572653A202520
:10330E0073206850610054656D70657261747572DA
:10331E00653A20257320430D0A0054656D70657261
:10332E0061747572653A202573204300506C656197
:10333E00736520656E7465722074686520706172A5
:10334E00616D6574657220796F752077616E74207A
:10335E00746F20726561643A0D0A202D2D2D3E206A
:10336E000054656D70657261747572653A005072C5
:10337E006573737572653A0048756D696469747921
:10338E003A0054656D70657261747572613A0050E1
:10339E0072657373696F6E653A00556D6964697411
:0433AE00613A000080
:00000001FF
