:100000000C94F3000C9414010C9414010C9414013E
:100010000C9414010C9414010C9414010C9414010C
:100020000C9414010C9414010C9414010C941401FC
:100030000C9414010C9414010C9414010C941401EC
:100040000C9414010C9414010C9414010C941401DC
:100050000C9414010C9414010C9414010C941401CC
:100060000C9414010C9414010C9414010C941401BC
:100070000C9414010C9414010C9414010C941401AC
:100080000C9414010C9414010C9414010C9414019C
:100090000C9414010C9414010C9414010C9414018C
:1000A0000C9414010C9414010C9414010C9414017C
:1000B0000C9414010C9414010C9414010C9414016C
:1000C0000C9414010C9414010C9414010C9414015C
:1000D0000C9414010C9414010C9414010C9414014C
:1000E0000C9414010C9470030C946C0B00407A1067
:1000F000F35A00A0724E18090010A5D4E80000E8D9
:100100007648170000E40B54020000CA9A3B000036
:1001100000E1F505000080969800000040420F00C5
:100120000000A08601000000102700000000E80386
:10013000000000006400000000000A000000000051
:100140000100000000002C76D888DC674F0823DF10
:10015000C1DFAE59E1B1B796E5E3E453C63AE651E3
:10016000997696E8E6C28426EB898C9B62ED407C0A
:100170006FFCEFBC9C9F40F2BAA56FA5F490055AA6
:100180002AF75C936B6CF9676DC11BFCE0E40D47CB
:10019000FEF520E6B500D0ED902E030094357705EE
:1001A0000080841E080000204E0A000000C80C33A6
:1001B0003333330F986E12831141EF8D2114893B35
:1001C000E65516CFFEE6DB18D1844B381BF77C1DB5
:1001D000901DA4BBE424203284725E228100C9F108
:1001E00024ECA1E53D2711241FBECFEFD1E2DEBFF5
:1001F000CDBF00E00CBF14E0A0E0B2E0E8EFF7E212
:1002000000E00BBF02C007900D92A831B107D9F7EB
:1002100024E0A8E1B4E001C01D92A334B207E1F7E5
:100220000E94DC0A0C94FA130C9400000E944A0409
:100230000E94770478940C94F3052F923F924F928A
:100240005F926F927F928F929F92AF92BF92CF9266
:10025000DF92EF92FF920F931F93CF93DF93CDB76F
:10026000DEB7CA5CD1090FB6F894DEBF0FBECDBFB2
:100270008EE092E00E94D80E87E292E00E94D80EB3
:1002800082E692E00E94D80E8CE992E00E94D80E9D
:1002900082ED92E00E94D80E8FEE92E00E94D80E7E
:1002A00033EEA32E33E0B32ECE018F579F4F7C0148
:1002B00088248394912C3E0191EB690E711CFE0100
:1002C000EF55FF4FC753DF4FF983E883C95CD04038
:1002D000BF92AF920E94BE0E60E870E0CE01019620
:1002E0000E9492038C010F900F90892B89F38AE072
:1002F00090E00E94D20E0130110529F489818F7D92
:10030000813509F49BC1C953DF4F19821882C75C3C
:10031000D040AE0149535F4F68E473E0CE010196CF
:100320000E94970E009709F40BC1D12CC12C4FE10C
:1003300050E0BC01C7010E94880EF701178E808132
:10034000882351F0870190E00E94770EF801819395
:100350008F0180818111F7CF6EE473E0C7010E94A5
:100360007F0E892B09F440C063E573E0C7010E944A
:100370007F0E892B09F4C2C068E573E0C7010E94B3
:100380007F0E892B09F4BAC064E673E0C7010E94AE
:100390007F0E892B09F4C1C06AE673E0C7010E9491
:1003A0007F0E892B09F4B9C063E773E0C7010E948F
:1003B0007F0E892B09F4C9C067E773E0C7010E946B
:1003C0007F0E892B09F4C1C060E873E0C7010E9469
:1003D0007F0E892B09F436C162E873E0C7010E94E1
:1003E0007F0E892B09F42EC1AE0149535F4F68E49B
:1003F00073E090E080E00E94970E009709F49CC0A3
:10040000F3E0CF16D1040CF492CF0E9411071B0128
:100410002C01CF53DF4F88819981C15CD04081305E
:10042000910509F4A3C08230910509F4B3C0892B6A
:1004300099F4830122E046E0C201B1010E94590E05
:100440007F926F92EFECF3E0FF93EF930E94BE0E6A
:100450000F900F900F900F9081E0C816D10409F40F
:1004600037CFCD53DF4F88819981C35CD040813035
:10047000910509F4AFC08230910509F4BFC0892B02
:1004800099F4830122E046E0C201B1010E94590EB5
:100490007F926F928FEC93E09F938F930E94BE0E9A
:1004A0000F900F900F900F90F2E0CF16D10409F447
:1004B0000FCFCB53DF4F88819981C55CD04081300D
:1004C000910509F4D9C08230910509F4E9C0892B5E
:1004D00009F0FECE830122E046E0C201B1010E9494
:1004E000590E7F926F92EFECF3E0FF93EF930E942F
:1004F000BE0E0F900F900F900F90EACEF601EE0F08
:10050000FF1F81EC90E08C0F9D1FE80FF91F1182F7
:100510001082F60131966F0167CFF601EE0FFF1FD3
:1005200081EC90E08C0F9D1FE80FF91F9182808273
:10053000F60131966F0158CFC114D10409F065CF8F
:1005400087E893E00E94D80EC3CEF601EE0FFF1F9E
:1005500081EC90E08C0F9D1FE80FF91F82E090E086
:1005600091838083F60131966F013ECF0E94D807B8
:10057000870122E047E00E94590EFF92EF928BEB39
:1005800093E09F938F930E94BE0E0F900F900F9059
:100590000F9062CF0E94E1098E010F551F4F22E09C
:1005A00046E00E94590EC653DF4F2881CA5CD040F6
:1005B0002F93C753DF4F8881C95CD0408F938AEA5D
:1005C00093E09F938F930E94BE0E0F900F900F9019
:1005D0000F9042CF0E94D807870122E047E00E9497
:1005E000590EFF92EF928BEB93E09F938F930E94B3
:1005F000BE0E0F900F900F900F9056CF0E94E10902
:100600008E010F551F4F22E046E00E94590EC6533F
:10061000DF4F9881CA5CD0409F93C753DF4FE8817A
:10062000C95CD040EF938AEA93E09F938F930E9436
:10063000BE0E0F900F900F900F9036CF84E393E093
:100640000E94D80EC653DF4F0FB6F894DEBF0FBE20
:10065000CDBFDF91CF911F910F91FF90EF90DF9071
:10066000CF90BF90AF909F908F907F906F905F9052
:100670004F903F902F9008950E94D807870122E065
:1006800047E00E94590EFF92EF928BEB93E09F930D
:100690008F930E94BE0E0F900F900F900F9018CE68
:1006A0000E94E1098E010F551F4F22E046E00E9493
:1006B000590EC653DF4F2881CA5CD0402F93C753D1
:1006C000DF4F8881C95CD0408F938AEA93E09F9383
:1006D0008F930E94BE0E0F900F900F900F90F8CD49
:1006E0008A3049F09091C00095FFFCCF8093C600FE
:1006F00090E080E008959091C00095FFFCCF9DE0D0
:100700009093C600EFCFFC012081222351F0319657
:100710009091C00095FFFCCF2093C600219121113C
:10072000F7CF0895CF93DF93FC0150E040E0161619
:1007300017060CF049C088E030E2615071099091D1
:10074000C00097FD0AC0AFE9BFE01197F1F700C004
:1007500000009091C00097FFF6CF9091C00097FFE6
:10076000FCCF9091C6009D30F1F09A30E1F09F37B8
:1007700079F1983069F14617570774F4DA01119648
:100780004E0F5F1FEA0198832091C00025FFFCCF28
:100790009093C600AD01D3CF2091C00025FFFCCFC0
:1007A0009093C600CCCF9091C00095FFFCCF8DE018
:1007B0008093C6009091C00095FFFCCF8AE08093A3
:1007C000C600E40FF51F1082CA01DF91CF91089592
:1007D0004115510509F4B3CF415051099091C00022
:1007E00095FFFCCF8093C6009091C00095FFFCCF91
:1007F0003093C6009091C00095FFFCCF8093C60057
:100800009ECFCF93DF931F92CDB7DEB79093C500F5
:100810008093C40086E08093C20088E18093C10089
:100820008FE19EE40197F1F708C08091C6008983AB
:1008300089818FE99FE00197F1F700C00000809166
:10084000C00087FDF2CF0F90DF91CF910895909176
:10085000C00095FFFCCF8093C60008958091C00032
:1008600087FFFCCF8091C60008958091C000881F4B
:100870008827881F0895FC012081222351F031969A
:100880009091C00095FFFCCF2093C60021912111CB
:10089000F7CF0895CF93DF931F92CDB7DEB780E0F7
:1008A00092E09093400480933F041092C50083E34C
:1008B0008093C40086E08093C20088E18093C100E9
:1008C0008FE19EE40197F1F708C08091C60089830B
:1008D00089818FE99FE00197F1F700C000008091C6
:1008E000C00087FDF2CF0F90DF91CF910895109255
:1008F000B90088E48093B800089594EA9093BC000E
:100900009091BC0097FFFCCF880F6170862B80937D
:10091000BB0084E88093BC008091BC0087FFFCCFC3
:100920008091B900887F089584E98093BC0085E3B5
:100930008A95F1F7000008958093BB0084E88093C6
:10094000BC008091BC0087FFFCCF8091B900887FFC
:10095000089584EC8093BC008091BC0087FFFCCF9D
:100960008091BB00089584E88093BC008091BC0016
:1009700087FFFCCF8091BB00089594EA9093BC0060
:100980009091BC0097FFFCCF90E0880F991F809357
:10099000BB0084E88093BC008091BC0087FFFCCF43
:1009A0008091B900887F883141F094E99093BC0030
:1009B00095E39A95F1F7000008956093BB0084E8F1
:1009C0008093BC008091BC0087FFFCCF8091B90070
:1009D000887F883251F74093BB0084E88093BC0045
:1009E0008091BC0087FFFCCF8091B900887F88325E
:1009F000E1F684E98093BC0085E38A95F1F7000075
:100A000080E0089594EA9093BC009091BC0097FF19
:100A1000FCCF282F30E0220F331F2093BB0084E847
:100A20008093BC009091BC0097FFFCCF8091B900EF
:100A3000887F883141F094E99093BC0095E39A95C2
:100A4000F1F7000008956093BB0084E88093BC0038
:100A50008091BC0087FFFCCF8091B900887F8832ED
:100A600041F094E99093BC00E5E3EA95F1F70000CA
:100A7000089584EA8093BC008091BC0087FFFCCF7E
:100A800021602093BB0084E88093BC008091BC006F
:100A900087FFFCCF8091B900887F803441F094E9D2
:100AA0009093BC00F5E3FA95F1F70000089584E80F
:100AB0008093BC008091BC0087FFFCCF8091BB007D
:100AC000FA01808384E98093BC00F5E3FA95F1F79D
:100AD000000080E0089594EA9093BC009091BC00DF
:100AE00097FFFCCFE82FF0E0EE0FFF1FE093BB0075
:100AF00084E88093BC009091BC0097FFFCCF80916C
:100B0000B900887F883141F094E99093BC0095E367
:100B10009A95F1F7000008956093BB0084E88093F4
:100B2000BC008091BC0087FFFCCF8091B900887F1A
:100B3000883241F094E99093BC00E5E3EA95F1F73F
:100B40000000089584EA8093BC008091BC0087FF78
:100B5000FCCFE160E093BB0084E88093BC0080910F
:100B6000BC0087FFFCCF8091B900887F803441F0C2
:100B700094E99093BC00F5E3FA95F1F7000008952D
:100B800030E0D90111971A161B06ACF460E0F0E0D2
:100B9000E0E074ECE40FF51F7093BC008091BC00A2
:100BA00087FFFCCF8091BB0080836F5FE62FF0E072
:100BB000EA17FB077CF321503109420F531F84E8E9
:100BC0008093BC008091BC0087FFFCCF8091BB006C
:100BD000FA01808384E98093BC00F5E3FA95F1F78C
:100BE000000080E00895CF93DF9300D01F92CDB72F
:100BF000DEB722E0AE014F5F5F4F68E886E70E94F4
:100C00006B0589819A8190933C0480933B0422E098
:100C1000AE014F5F5F4F6AE886E70E946B058981EE
:100C20009A8190933A048093390422E0AE014F5F99
:100C30005F4F6CE886E70E946B0589819A819093EB
:100C400038048093370422E0AE014F5F5F4F6EE8B7
:100C500086E70E946B0589819A8190933604809380
:100C6000350422E0AE014F5F5F4F60E986E70E94E6
:100C70006B0589819A81909334048093330422E038
:100C8000AE014F5F5F4F62E986E70E946B05898185
:100C90009A81909332048093310422E0AE014F5F39
:100CA0005F4F64E986E70E946B0589819A81909382
:100CB000300480932F0422E0AE014F5F5F4F66E95E
:100CC00086E70E946B0589819A8190932E04809318
:100CD0002D0422E0AE014F5F5F4F68E986E70E9476
:100CE0006B0589819A8190932C0480932B0422E0D8
:100CF000AE014F5F5F4F6AE986E70E946B0589810D
:100D00009A8190932A048093290422E0AE014F5FD8
:100D10005F4F6CE986E70E946B0589819A81909309
:100D200028048093270422E0AE014F5F5F4F6EE9F5
:100D300086E70E946B0589819A81909326048093AF
:100D40002504AE014F5F5F4F61EA86E70E9402050E
:100D500089818093240422E0AE014F5F5F4F61EEF2
:100D600086E70E946B0589819A8190932304809382
:100D70002204AE014F5F5F4F63EE86E70E940205DB
:100D8000898180932104AE014C5F5F4F64EE86E75A
:100D90000E940205AE014D5F5F4F65EE86E70E943F
:100DA0000205AE014F5F5F4F66EE86E70E940205C7
:100DB0002B818C8130E1839FC0011124322F3F7041
:100DC000832B9093200480931F04898130E1839FBB
:100DD000C001112422952F70822B90931E048093C2
:100DE0001D04AE014F5F5F4F67EE86E70E9402056C
:100DF000898180931C0441E062EF86E70E94BD0474
:100E000047E264EF86E70E94BD0440EA65EF86E7AB
:100E10000E94BD040F900F900F900F90DF91CF9123
:100E200008958F929F92AF92BF92CF92DF92EF92EE
:100E3000FF92CF93DF9300D0CDB7DEB723E0AE01B2
:100E40004F5F5F4F6AEF86E70E946B05898190E0F4
:100E5000B0E0A0E02CE0880F991FAA1FBB1F2A95C5
:100E6000D1F74A8150E070E060E0440F551F661FE3
:100E7000771F440F551F661F771F440F551F661FAE
:100E8000771F440F551F661F771F842B952BA62BAA
:100E9000B72B2B8122952F70822B40913B045091D0
:100EA0003C0470E060E06C017D01F4E0F594E794AF
:100EB000D794C794FA95D1F7C41AD50AE60AF70A67
:100EC00023E0B595A795979587952A95D1F7440F77
:100ED000551F661F771F4C015D01841A950AA60AEB
:100EE000B70AA5019401A0913904B0913A040E9477
:100EF000FE0A4B015C014BE0B594A794979487944C
:100F00004A95D1F7A7019601C701B6010E94E30AED
:100F10009B01AC016CE055954795379527956A95EF
:100F2000D1F7A0913704B09138040E94FE0AEEE098
:100F30009595879577956795EA95D1F7860E971ED3
:100F4000A81EB91E8092180490921904A0921A0447
:100F5000B0921B04C501B401660F771F881F991F4B
:100F6000660F771F881F991F680D791D8A1D9B1DAD
:100F700060587F4F8F4F9F4F672F782F892F99276A
:100F800087FD9A950E94120D20E030E048EC52E473
:100F90000E94980C0F900F900F90DF91CF91FF90CF
:100FA000EF90DF90CF90BF90AF909F908F9008957B
:100FB0002F923F924F925F926F927F928F929F9269
:100FC000AF92BF92CF92DF92EF92FF920F931F9357
:100FD000CF93DF93CDB7DEB76A970FB6F894DEBF35
:100FE0000FBECDBF23E0AE014F5F5F4F67EF86E7D7
:100FF0000E946B052981288F8A81898F2B812A8FF6
:101000008091180490911904A0911A04B0911B04C6
:101010006C017D01FF0CCC08DC2C76019C01AD013C
:101020006C2D7C2D8C2D9C2D345F41405109610924
:101030007109810991092C833D834E835F83688701
:1010400079878A879B8759016A017B018C010E94FD
:10105000060B2C873D874E875F876C8B7D8B8E8B35
:101060009F8B3091340420913304932F990F990B67
:10107000492F592F692F792F892F0E94060B0CE0D9
:101080000E94350C922E832E742E652E562E472EDE
:10109000382E292E3091320420913104932F990F4C
:1010A000990BAC84BD84CE84DF84EC88FD880E89E6
:1010B0001F89492F592F692F792F892F0E94060BDD
:1010C00008E00E944E0CA92CB82CC72CD62CE52C7D
:1010D000F42C032D122D0E946B0C70588F4F9F4FD4
:1010E00020903504309036045101C12CD12CE12CD4
:1010F000F12C00E010E00E94060B01E20E944E0C71
:10110000288B398B4A8B5B8B362E872E982E292E77
:10111000A0E00E947D0C09F450C130912C04209174
:101120002B04932F990F990BAC84BD84CE84DF845C
:10113000EC88FD880E891F89492F592F692F792F37
:10114000892F0E94060B2C873D872A013B018E8741
:101150009F8730912E0420912D04932F990F990B86
:10116000AC80BD80CE80DF80E884F9840A851B8551
:10117000492F592F692F792F892F0E94060B01E1E2
:101180000E94350CAC84BD84620173010E851F85FD
:101190000E946B0C59016A017B018C83192F298DE8
:1011A000822F90E0B0E0A0E0880F991FAA1FBB1F1C
:1011B000880F991FAA1FBB1F880F991FAA1FBB1F4B
:1011C000880F991FAA1FBB1F2A8D22952F70822B73
:1011D000288D422F50E070E060E0ECE0440F551F96
:1011E000661F771FEA95D1F7482B592B6A2B7B2B6B
:1011F00080E090E0A0E1B0E0841B950BA60BB70B5C
:101200002C013D01770C4408542C32019C01AD01A6
:10121000642D742D842D942D0FE10E94350CB22F76
:10122000A32FF42FE52F2B01782E692E3091300457
:1012300020912F04932F990F990B492F592F692F24
:10124000792F892F03E20E94350C0C810E946B0CD0
:1012500059016A017B018C012B2F3A2F4F2F5E2FF2
:10126000B201872D962D0E94740CA5E3AA2EBCE036
:10127000BB2EC12CD12CE12CF12C00E010E00E94FF
:10128000060BA888B988CA88DB88E32CF82C092DBE
:10129000122D0E94600B2C833D834E835F836887F1
:1012A00079878A879B870DE00E944E0C922E832EB1
:1012B000742E652E562E472E382E292E3091260458
:1012C00020912504932F990F990BA92CB82CC72C8A
:1012D000D62CE52CF42C032D122D492F592F692FD4
:1012E000792F892F0E94060B0E94060B09E10E94AC
:1012F0004E0CAC80BD80CE80DF80E884F9840A8506
:101300001B850E946B0C19012A013B014C01309195
:10131000280420912704932F990F990B492F592FB7
:10132000692F792F892F0E94060B03E10E944E0C32
:1013300059016A017B018C019101A201B301C40131
:101340000E946B0C08E00E944E0C59016A017B015F
:10135000E82F192F30912A0420912904932F990FF7
:10136000990B492F592F692F792F892F04E00E945B
:10137000350C0E2F0E946B0C0E940A0D20E030E00D
:1013800048EC56E40E94980C6A960FB6F894DEBFBB
:101390000FBECDBFDF91CF911F910F91FF90EF90C6
:1013A000DF90CF90BF90AF909F908F907F906F9085
:1013B0005F904F903F902F90089560E070E0CB01D8
:1013C000E3CF4F925F926F927F928F929F92AF92F4
:1013D000BF92CF92DF92EF92FF92CF93DF931F9253
:1013E0001F92CDB7DEB722E0AE014F5F5F4F6DEFCA
:1013F00086E70E946B05C980DA80DC24CD24DC24DA
:10140000F12CE12C8090180490901904A0901A04FB
:10141000B0901B048CE2981A81E0A80AB1084EE053
:10142000CC0CDD1CEE1CFF1C4A95D1F780911F04EB
:1014300090912004092E000CAA0BBB0B54E1880FDD
:10144000991FAA1FBB1F5A95D1F7C81AD90AEA0AD1
:10145000FB0AA0911D04B0911E04A50194010E94F5
:10146000FE0AC61AD70AE80AF90A80E4D80EE11C77
:10147000F11C6FE0F594E794D794C7946A95D1F77F
:10148000A0912104B0E00E94F30A2B013C017BE013
:1014900075946794579447947A95D1F780E8580EDD
:1014A000611C711CA0911C040A2E000CBB0B0E9435
:1014B000FE0AEAE09595879577956795EA95D1F7C5
:1014C000A30192010E94E30A9B01AC01FAE0559549
:1014D000479537952795FA95D1F7405E5F4FA091D4
:1014E0002204B09123040E94FE0A705E8F4F9F4F2A
:1014F000AEE09595879577956795AA95D1F7A70161
:1015000096010E94E30A6B017C01BFE095958795E7
:1015100077956795BA95D1F79B01AC010E94E30AD4
:101520009B01AC0187E055954795379527958A959E
:10153000D1F7A0912404B0E00E94F30A24E095952D
:101540008795779567952A95D1F7C61AD70AE80A3D
:10155000F90A81E0C816D104E10489E1F8062CF00B
:10156000C12CD12CE12C39E1F32EC701B60197FF34
:1015700003C060E070E0CB012CE0959587957795EE
:1015800067952A95D1F70E94120D20E030E040E8DF
:101590005AE30E94EC0D0F900F90DF91CF91FF90D6
:1015A000EF90DF90CF90BF90AF909F908F907F9003
:1015B0006F905F904F9008950E9416010E941D0148
:1015C00090E080E00895DB018F939F930E94F30ADF
:1015D000BF91AF91A29F800D911DA39F900DB29FCF
:1015E000900D112408950E94890CA59F900DB49F21
:1015F000900DA49F800D911D11240895B7FF0C94A8
:10160000F30A0E94F30A821B930B0895DF93CF9392
:101610001F930F939A9DF02D219FF00D8B9DF00D40
:101620008A9DE02DF10D039FF00D029FE00DF11D4D
:101630004E9DE00DF11D5E9DF00D4F9DF00D7F93D1
:101640006F93BF92AF925F934F93D5010E94890C25
:101650008B01AC01D7010E94890CEB01E80FF91F47
:10166000D6010E94550B2F913F91D6010E94890C03
:10167000C60FD71FE81FF91FAF91BF910E94550BEE
:101680002F913F910E94890CC60FD71FE81FF91FA9
:10169000D6010E94890CE60FF71F9801BE01CF0109
:1016A0000F911F91CF91DF9108950E94890C460FF1
:1016B000571FC81FD91F08F431960895689401C0B8
:1016C000E894F92FF12B12F00C94920BA0E0B0E00B
:1016D000ECE6FBE00C94040C092E059422F40E9425
:1016E000EE0B112392F4F0E80F26FFEFE094F09454
:1016F00000951095B094C094D094A194BF0ACF0ADD
:10170000DF0AEF0AFF0A0F0B1F0B0E949D0B07FC5D
:101710000E94EE0BCDB7DEB7ECE00C94200C689481
:1017200001C0E8948F929F92CF93DF930E949D0B0C
:10173000DF91CF919F908F90089588249924F40190
:10174000E401B0E49F93AA279A158B049C04ED054D
:10175000FE05CF05D007A10798F4AD2FDC2FCF2FC2
:10176000FE2FE92D982C892E982F872F762F652F05
:10177000542F432F322F2227B85031F7BF9127C063
:101780001B2EBF91BB27220F331F441F551F661FFF
:10179000771F881F991F881C991CEE1FFF1FCC1FE5
:1017A000DD1FAA1FBB1F8A149B04EC05FD05CE0597
:1017B000DF05A007B10748F08A189B08EC09FD096E
:1017C000CE09DF09A00BB10B21601A94E1F62EF4CB
:1017D0009401AF01BE01CD01000C08956095709594
:1017E0008095909530954095509521953F4F4F4F5E
:1017F0005F4F6F4F7F4F8F4F9F4F08952F923F92B4
:101800004F925F926F927F928F929F92AF92BF9210
:10181000CF92DF92EF92FF920F931F93CF93DF93BC
:10182000CDB7DEB7CA1BDB0B0FB6F894DEBF0FBE19
:10183000CDBF19942A88398848885F846E847D8456
:101840008C849B84AA84B984C884DF80EE80FD8068
:101850000C811B81AA81B981CE0FD11D0FB6F894DE
:10186000DEBF0FBECDBFED010895002E083090F011
:10187000982F872F762F652F542F432F322F222713
:101880000850F4CF220F331F441F551F661F771FC8
:10189000881F991F0A95B2F7002D089597FD10949F
:1018A000002E083098F00850232F342F452F562F44
:1018B000672F782F892F912DF4CF159497958795C1
:1018C0007795679557954795379527950A95AAF780
:1018D0001124002D08952A0D3B1D4C1D5D1D6E1D0C
:1018E0007F1D801F911F08952A193B094C095D092E
:1018F0006E097F09800B910B08950024A7FD0094C9
:101900002A173005400550056005700580059005D3
:101910000895A29FB001B39FC001A39F700D811DC8
:101920001124911DB29F700D811D1124911D0895E8
:101930000E94AC0C0C94B20D0E94AB0D58F00E94AA
:10194000A40D40F029F45F3F29F00C948B0D511148
:101950000C94E60D0C94910D0E94C30D68F399232D
:10196000B1F3552391F3951B550BBB27AA2762179B
:101970007307840738F09F5F5F4F220F331F441FA8
:10198000AA1FA9F335D00E2E3AF0E0E832D09150DC
:101990005040E695001CCAF72BD0FE2F29D0660FC9
:1019A000771F881FBB1F261737074807AB07B0E80C
:1019B00009F0BB0B802DBF01FF2793585F4F3AF012
:1019C0009E3F510578F00C948B0D0C94E60D5F3F13
:1019D000E4F3983ED4F3869577956795B795F79598
:1019E0009F5FC9F7880F911D9695879597F9089580
:1019F000E1E0660F771F881FBB1F6217730784071C
:101A0000BA0720F0621B730B840BBA0BEE1F88F72A
:101A1000E095089597FB16F40E94940D0C944E0DDA
:101A2000E89409C097FB3EF4909580957095619578
:101A30007F4F8F4F9F4F9923A9F0F92F96E9BB272E
:101A40009395F695879577956795B795F111F8CFAA
:101A5000FAF4BB0F11F460FF1BC06F5F7F4F8F4F15
:101A60009F4F16C0882311F096E911C0772321F00B
:101A70009EE8872F762F05C0662371F096E8862FA3
:101A800070E060E02AF09A95660F771F881FDAF7FA
:101A9000880F9695879597F90895E894F92F96EB16
:101AA000FF2381F0121613061406440B9395F69546
:101AB00087957795679557954040FF23B9F71BC0E9
:101AC00099270895882351F49850D2F7872B762FC1
:101AD000652F542F432F322F20E0B1F31216130637
:101AE0001406440B88233AF09A95440F551F661F3D
:101AF000771F881FCAF755234AF4440F551F11F466
:101B000060FF04C06F5F7F4F8F4F9F4F880F969588
:101B1000879597F9089597F99F6780E870E060E0EE
:101B200008959FEF80EC089590958095709560954D
:101B300050954095309521953F4F4F4F5F4F6F4FD8
:101B40007F4F8F4F9F4F089500240A941616170653
:101B500018060906089500240A941216130614069E
:101B600005060895092E0394000C11F4882352F001
:101B7000BB0F40F4BF2B11F460FF04C06F5F7F4FB9
:101B80008F4F9F4F089557FD9058440F551F59F0A0
:101B90005F3F71F04795880F97FB991F61F09F3F5A
:101BA00079F087950895121613061406551FF2CF83
:101BB0004695F1DF08C0161617061806991FF1CFD3
:101BC00086957105610508940895E894BB276627FA
:101BD0007727CB0197F908950E94FF0D0C94B20D61
:101BE0000E94A40D38F00E94AB0D20F0952311F057
:101BF0000C948B0D0C94910D11240C94E60D0E9405
:101C0000C30D70F3959FC1F3950F50E0551F629F70
:101C1000F001729FBB27F00DB11D639FAA27F00D45
:101C2000B11DAA1F649F6627B00DA11D661F829F6C
:101C30002227B00DA11D621F739FB00DA11D621F51
:101C4000839FA00D611D221F749F3327A00D611D6E
:101C5000231F849F600D211D822F762F6A2F112450
:101C60009F5750409AF0F1F088234AF0EE0FFF1F83
:101C7000BB1F661F771F881F91505040A9F79E3FDA
:101C8000510580F00C948B0D0C94E60D5F3FE4F34E
:101C9000983ED4F3869577956795B795F795E79530
:101CA0009F5FC1F7FE2B880F911D9695879597F939
:101CB0000895EF920F931F93CF93DF93E80134E0E1
:101CC00047FD34E1042E000C550B57FF03C051951E
:101CD00041955109E32E022F242FAE010E940511D8
:101CE000CE01DF91CF911F910F91EF900895911147
:101CF000089581548A5108F4805E855A0895FB0145
:101D0000DC018D91019080190110D9F3990B089590
:101D1000FB01DC014150504048F001900D92002041
:101D2000C9F701C01D9241505040E0F70895FA01F3
:101D3000A191B081009719F41097E1F0CD01DC0179
:101D4000CD010D90002011F4C00113C0FB012191C1
:101D5000222319F02015D9F7F3CFFB01219120158B
:101D600019F41E92119606C02223C1F70D9000208F
:101D7000A1F7D001FA01A193B0830895CF93DF9327
:101D8000CDB7DEB7AE014A5F5F4FFA016191719145
:101D9000AF0180913F04909140040E94030FDF91B6
:101DA000CF91089560913F04709140040C946C139E
:101DB0000F931F93CF93DF93E0913F04F091400482
:101DC0002381EC0110E000E021FD08C00FEF1FEFC0
:101DD00014C01995892B11F00FEF1FEF89916091B5
:101DE0003F0470914004DB011896ED91FC91811144
:101DF000F0CF8AE01995892B49F7C801DF91CF917F
:101E00001F910F9108952F923F924F925F926F9280
:101E10007F928F929F92AF92BF92CF92DF92EF927A
:101E2000FF920F931F93CF93DF9300D000D000D089
:101E30001F921F92CDB7DEB77C013B018A01FC01E6
:101E400017821682838181FFDDC1CE0101965C017C
:101E5000F7019381F30193FD859193FF81913F01F8
:101E6000882309F453C1853239F493FD859193FF9A
:101E700081913F01853229F4B70190E00E946C13F3
:101E8000E7CF912C212C312CFFE1F31538F08B3268
:101E900011F190F4803209F1833229F137FC3CC012
:101EA00020ED280F2A3050F536FE20C08AE0989E9B
:101EB000200D1124922E06C08D3291F0803371F7DF
:101EC000689430F8F30193FD859193FF81913F0170
:101ED0008111DACF21C0689431F8689432F8F2CFDA
:101EE000689433F8EFCF689434F8ECCFEAE02E9E94
:101EF000200D1124222E689435F8E4CF8E3229F477
:101F000036FC04C1689436F8DDCF8C3619F4689439
:101F100037F8D8CF8836B1F2982F9F7D95549330FB
:101F2000E0F08336A1F18337C1F1833509F063C056
:101F30002801F2E04F0E511CF801C080D180692DBC
:101F400070E036FC02C06FEF7FEFC6010E945613AF
:101F50004C01689437F882010AC00C5F1F4FFFE301
:101F6000F98388248394912C6501E89437F833FE33
:101F70002DC0522C8114910471F5552009F468CFBD
:101F8000B70180E290E00E946C135A94F6CFF801FA
:101F9000808189830E5F1F4FE4CF2801F2E04F0E4E
:101FA000511CF801C080D180692D70E036FC02C060
:101FB0006FEF7FEFC6010E9461134C018201D5CF04
:101FC000B70180E290E00E946C132A94281419044F
:101FD00009F0B0F7CECFF60137FC859137FE81913D
:101FE0006F01B70190E00E946C1351105A94F1E018
:101FF0008F1A9108BFCF843619F0893609F077C05F
:10200000F80137FE6BC060817181828193810C5F22
:102010001F4FF32DFF763F2E97FF09C090958095B7
:10202000709561957F4F8F4F9F4F689437F82AE0E6
:1020300030E0A5010E949C13C82ECA188C2C432C9A
:1020400036FE0CC0E89440F8C91440F434FE05C0D4
:1020500032FC03C0F32DFE7E4F2E892C44FEAAC015
:10206000FE01EC0DF11D8081803309F09CC0242D10
:10207000297E422E842D8870582E43FCAAC040FE33
:10208000A4C09C2C821418F42C0C922C981844FE9A
:10209000A6C0B70180E390E00E946C1342FE09C025
:1020A00088E790E041FE02C088E590E0B7010E9419
:1020B0006C13C91408F49FC0CA94D12C9FEFC91A9D
:1020C000D90ACA0CDB1CF60182916F01B70190E0BE
:1020D0000E946C13AC14BD04B1F74FCF60817181C5
:1020E000072E000C880B990B0E5F1F4F92CFD32C3D
:1020F000E894D4F82AE030E08537E1F1232D297FF8
:10210000D22E8F36A9F1F0F4883551F1F70186818E
:1021100097812B960FB6F894DEBF0FBECDBFDF912F
:10212000CF911F910F91FF90EF90DF90CF90BF90D4
:10213000AF909F908F907F906F905F904F903F9067
:102140002F900895803749F0883701F7D4FE02C0F8
:102150006894D2F820E130E00DC06894D4F8F6CF4E
:1021600034FE03C0822F8660D82E20E132E002C008
:1021700028E030E0F801D7FE0FC0608171818281D4
:1021800093810C5F1F4FA5010E949C13C82ECA1893
:102190003D2CE89437F852CF6081718190E080E067
:1021A0000E5F1F4FF0CF42FC02C0839463CF839435
:1021B000839460CF842D867809F45CCFF6CFB70185
:1021C00080E290E00E946C1383948214C0F3512C3F
:1021D0005ECF522C5818821408F459CFF8CF842DB2
:1021E000867809F466CF8BE241FE80E247FC8DE2FF
:1021F000B70190E05CCFB70180E390E00E946C13E0
:102200009A9457CF8FEF9FEF84CF8F929F92AF9288
:10221000BF92CF92DF92EF92FF920F931F93CF93D3
:10222000DF9300D000D000D0CDB7DEB76A01F22E28
:10223000B02E102FFBE3AF2EA01608F41BE31F5F98
:10224000012F27E0AE014F5F5F4F0E947E12BC015D
:102250008981982F9970913009F44EC09BE2E1FC7E
:1022600004C09E2D9170E0FC49C05E2D5071E82F96
:10227000E87083FF55C084E0911101C083E0EF2D29
:10228000E81B8F1508F0E0E0D6018E2F20E25523E1
:10229000C9F1992329F0D6019C93C60101966C01DE
:1022A00096012D5F3F4FE2FE33C08EE4D6018C9342
:1022B00091E411969C93119712968C93D9018E2FCD
:1022C00090E281112AC0E20FF32FF11D10828EEFF0
:1022D0009FEF29960FB6F894DEBF0FBECDBFDF91FA
:1022E000CF911F910F91FF90EF90DF90CF90BF9013
:1022F000AF909F908F9008959DE2B7CF90E2B5CFB9
:102300002D9381508111FCCFCE0ED11CE0E0C1CFC6
:102310008EE6D6018C9391E6CCCF9D938150D1CFA0
:10232000482F447082FF3DC084E0911101C083E0DA
:102330008F1510F4EF2DE81BD6018E2F20E25523C8
:1023400009F1992329F0D6019C93C60101966C01ED
:1023500096012D5F3F4FE2FE1BC089E4D6018C93AE
:102360008EE411968C93119786E412968C93D90182
:102370008E2F90E2882309F4A6CF9D938150FACF47
:102380002D9381508111FCCFCE0ED11CE0E0D9CF2E
:1023900089E6D6018C938EE611968C93119786E68A
:1023A000E4CF9B0177FF02C030E020E0A1E0B0E085
:1023B000911102C0B0E0A0E0F9013196AE0FBF1F4D
:1023C0008B2C912CBB2009F461C05401EFEFAE1AA5
:1023D000BE0AAA0DBB1DFA161B0619F014F04F2DEC
:1023E0004A1B511188C0E3FC59C07601A42FB0E20A
:1023F000A1114FC0C40ED11C992309F45BC040E069
:10240000D6011196F60190836D01552309F448C059
:10241000012F060F9A81582F507184FF03C091330A
:1024200009F4015010160CF047C0093008F008E01C
:10243000EEE2FE2E5B01A01AB10885019194819411
:1024400091082F3F320729F4D601FC92F60131960C
:102450006F016217730794F1021713077CF5DB0114
:10246000A21BB30BAA24A394B12CAC0EBD1EAA0DC3
:10247000BB1D11968C9121503109D601119628155A
:102480003905F4F0F60180836D01DBCFB12CA12C6E
:10249000A0CFF701B1937F01A150AACF9111B0CF86
:1024A000D601942F50E302C05D9391509111FCCF5F
:1024B000C40ED11C40E0ACCF01E0BACF80E3DBCF4B
:1024C0006217730731F4963388F4953311F455236A
:1024D00069F0F6018083FD01842F90E2811108C02C
:1024E000A40FB11D1C9290E080E0F3CE81E3F1CF08
:1024F00091938150F3CF911183CF8ACF283008F088
:1025000027E03327DA01990F311D87FD916000968E
:102510006105710539F432602E5F3D9330E32A95F1
:10252000E1F708959F3F30F080387105610509F0AB
:102530003C5F3C5F3D93913008F08068911DDF93D4
:10254000CF931F930F93FF92EF92192F987F969539
:10255000E92F96959695E90FFF27EA5BFE4F99279D
:102560003327EE24FF24A701E70105900894079480
:1025700028F4360FE71EF81E491F511D660F771FFE
:10258000881F991F0694A1F70590079428F4E70E79
:10259000F81E491F561FC11D770F881F991F661F00
:1025A0000694A1F70590079428F4F80E491F561FCA
:1025B000C71FD11D880F991F661F771F0694A1F7AB
:1025C0000590079420F4490F561FC71FD81F990F75
:1025D000661F771F881F0694A9F7849110951770BE
:1025E00041F0D695C79557954795F794E7941A9576
:1025F000C1F7ECEEF0E06894159015913591659176
:10260000959105907FE27395E118F10A430B560B03
:10261000C90BD009C0F7E10CF11E431F561FC91F9B
:10262000D01D7EF4703311F48A95E6CFE894015002
:1026300030F0080F0AF40027021708F4202F239522
:10264000022F7A3328F079E37D932A95E9F710C0B9
:102650007D932A9589F606949795679537951795F2
:102660001794E118F10A430B560BC90BD00998F0E7
:1026700023957E9173957A3308F070E37C93201351
:10268000B8F77E9170617D9330F0839571E37D930F
:1026900070E32A95E1F71124EF90FF900F911F91BD
:1026A000CF91DF91992787FD90950895FC010590C2
:1026B000615070400110D8F7809590958E0F9F1F44
:1026C0000895FC016150704001900110D8F7809589
:1026D00090958E0F9F1F08950F931F93CF93DF93B5
:1026E000182F092FEB018B8181FD09C01FEF0FEF20
:1026F000812F902FDF91CF911F910F91089582FF2D
:1027000014C02E813F818C819D81281739073CF4AC
:10271000E881F981CF0101969983888310838E81A6
:102720009F8101969F838E83E3CFE885F985812F72
:102730001995892BA1F3DACFFA01AA27283051F194
:10274000203181F1E8946F936E7F6E5F7F4F8F4FE2
:102750009F4FAF4FB1E03ED0B4E03CD0670F781F41
:10276000891F9A1FA11D680F791F8A1F911DA11D26
:102770006A0F711D811D911DA11D20D009F468945F
:102780003F912AE0269F11243019305D3193DEF607
:10279000CF010895462F4770405D4193B3E00FD0BD
:1027A000C9F7F6CF462F4F70405D4A3318F0495DA8
:1027B00031FD4052419302D0A9F7EACFB4E0A6958B
:1027C0009795879577956795BA95C9F700976105AD
:1027D000710508959B01AC010A2E06945795479503
:1027E00037952795BA95C9F7620F731F841F951FF8
:0827F000A01D0895F894FFCF2D
:1027F80000000002000000007003000000000D0A45
:102808002D2D2D4C6574747572612073656E736F10
:1028180072652D2D2D0D002D292050657220706FA9
:10282800746572206C656767657265206C612074D9
:10283800656D70657261747572612C206469676971
:10284800746172652022726561642074656D7022FE
:102858000D002D292050657220706F746572206CF0
:10286800656767657265206C61207072657373694E
:102878006F6E652C206469676974617265202272C5
:10288800656164207072657373220D002D292050D4
:10289800657220706F746572206C65676765726514
:1028A800206C27756D6964697461272C20646967D9
:1028B80069746172652022726561642068756D2291
:1028C8000D002D2920506572207573636972652C7F
:1028D800206469676974617265202271220D004560
:1028E8002720706F73736962696C65206C65676710
:1028F80065726520706975272076616C6F72692C26
:10290800206164206573656D70696F3A2022726575
:1029180061642074656D70207072657373206875CA
:102928006D220D0055736369746120696E20636FB1
:1029380072736F2E2E2E0D0020092C3B3A00726503
:1029480061640074656D700074656D7065726174A2
:102958007572650070726573730070726573737554
:1029680072650068756D0068756D696469747900D1
:10297800710071756974004E657373756E20636FAD
:102988006D616E646F2076616C69646F2E20526988
:1029980070726F766172652E0D00556D6964697489
:1029A800613A2025732025250D0A0050726573733E
:1029B800696F6E653A202573206850610D0A0054CE
:1029C800656D70657261747572613A202573204374
:1029D8000D0A00446967697461726520696C20702A
:1029E8006172616D6574726F206368652073692018
:1029F8006465736964657261206C65676765726593
:082A0800202D2D2D3E200000C1
:00000001FF
