:100000000C94F1000C9412010C9412010C94120146
:100010000C9412010C9412010C9412010C94120114
:100020000C9412010C9412010C9412010C94120104
:100030000C9412010C9412010C9412010C941201F4
:100040000C9412010C9412010C9412010C941201E4
:100050000C9412010C9412010C9412010C941201D4
:100060000C9412010C9412010C9412010C941201C4
:100070000C9412010C9412010C9412010C941201B4
:100080000C9412010C9412010C9412010C941201A4
:100090000C9412010C9412010C9412010C94120194
:1000A0000C9412010C9412010C9412010C94120184
:1000B0000C9412010C9412010C9412010C94120174
:1000C0000C9412010C9412010C9412010C94120164
:1000D0000C9412010C9412010C9412010C94120154
:1000E0000C9412010C94140100407A10F35A00A0F1
:1000F000724E18090010A5D4E80000E876481700F1
:1001000000E40B54020000CA9A3B000000E1F50530
:10011000000080969800000040420F000000A0867A
:1001200001000000102700000000E80300000000AC
:100130006400000000000A00000000000100000050
:1001400000002C76D888DC674F0823DFC1DFAE596A
:10015000E1B1B796E5E3E453C63AE651997696E8FD
:10016000E6C28426EB898C9B62ED407C6FFCEFBC81
:100170009C9F40F2BAA56FA5F490055A2AF75C93AC
:100180006B6CF9676DC11BFCE0E40D47FEF520E6E2
:10019000B500D0ED902E0300943577050080841EC5
:1001A000080000204E0A000000C80C333333330F20
:1001B000986E12831141EF8D2114893BE65516CFBD
:1001C000FEE6DB18D1844B381BF77C1D901DA4BBC9
:1001D000E424203284725E228100C9F124ECA1E57E
:1001E0003D2711241FBECFEFD1E2DEBFCDBF00E01F
:1001F0000CBF12E0A0E0B2E0E6E1F5E100E00BBFE9
:1002000002C007900D92A232B107D9F722E0A2E214
:10021000B2E001C01D92AE32B207E1F70E94FB03CB
:100220000C94890A0C9400008A3049F09091C00027
:1002300095FFFCCF8093C60090E080E008959091F8
:10024000C00095FFFCCF9DE09093C600EFCF909348
:10025000C5008093C40086E08093C20088E9809343
:10026000C10008959091C00095FFFCCF8093C60017
:1002700008958091C00087FFFCCF8091C60008954B
:100280008091C000881F8827881F0895FC01208165
:10029000222351F031969091C00095FFFCCF20931E
:1002A000C60021912111F7CF089580E092E090934C
:1002B0002B0280932A021092C50083E38093C4002E
:1002C00086E08093C20088E98093C100089510926F
:1002D000B90088E48093B800089594EA9093BC0034
:1002E0009091BC0097FFFCCF880F6170862B8093A4
:1002F000BB0084E88093BC008091BC0087FFFCCFEA
:100300008091B900887F089584E98093BC0085E3DB
:100310008A95F1F7000008958093BB0084E88093EC
:10032000BC008091BC0087FFFCCF8091B900887F22
:10033000089584EC8093BC008091BC0087FFFCCFC3
:100340008091BB00089584E88093BC008091BC003C
:1003500087FFFCCF8091BB00089594EA9093BC0086
:100360009091BC0097FFFCCF90E0880F991F80937D
:10037000BB0084E88093BC008091BC0087FFFCCF69
:100380008091B900887F883141F094E99093BC0056
:1003900095E39A95F1F7000008956093BB0084E817
:1003A0008093BC008091BC0087FFFCCF8091B90096
:1003B000887F883251F74093BB0084E88093BC006B
:1003C0008091BC0087FFFCCF8091B900887F883284
:1003D000E1F684E98093BC0085E38A95F1F700009B
:1003E00080E0089594EA9093BC009091BC0097FF40
:1003F000FCCF282F30E0220F331F2093BB0084E86E
:100400008093BC009091BC0097FFFCCF8091B90015
:10041000887F883141F094E99093BC0095E39A95E8
:10042000F1F7000008956093BB0084E88093BC005E
:100430008091BC0087FFFCCF8091B900887F883213
:1004400041F094E99093BC00E5E3EA95F1F70000F0
:10045000089584EA8093BC008091BC0087FFFCCFA4
:1004600021602093BB0084E88093BC008091BC0095
:1004700087FFFCCF8091B900887F803441F094E9F8
:100480009093BC00F5E3FA95F1F70000089584E835
:100490008093BC008091BC0087FFFCCF8091BB00A3
:1004A000FA01808384E98093BC00F5E3FA95F1F7C3
:1004B000000080E0089594EA9093BC009091BC0005
:1004C00097FFFCCFE82FF0E0EE0FFF1FE093BB009B
:1004D00084E88093BC009091BC0097FFFCCF809192
:1004E000B900887F883141F094E99093BC0095E38E
:1004F0009A95F1F7000008956093BB0084E880931B
:10050000BC008091BC0087FFFCCF8091B900887F40
:10051000883241F094E99093BC00E5E3EA95F1F765
:100520000000089584EA8093BC008091BC0087FF9E
:10053000FCCFE160E093BB0084E88093BC00809135
:10054000BC0087FFFCCF8091B900887F803441F0E8
:1005500094E99093BC00F5E3FA95F1F70000089553
:1005600030E0D90111971A161B06ACF460E0F0E0F8
:10057000E0E074ECE40FF51F7093BC008091BC00C8
:1005800087FFFCCF8091BB0080836F5FE62FF0E098
:10059000EA17FB077CF321503109420F531F84E80F
:1005A0008093BC008091BC0087FFFCCF8091BB0092
:1005B000FA01808384E98093BC00F5E3FA95F1F7B2
:1005C000000080E00895CF93DF931F921F92CDB774
:1005D000DEB722E0AE014F5F5F4F68E886E70E941A
:1005E0005B0281113AC089819A819093270280939E
:1005F000260222E0AE014F5F5F4F6AE886E70E9465
:100600005B02811130C089819A8190932502809389
:10061000240222E0AE014F5F5F4F6CE886E70E9444
:100620005B0281111DC089819A819093230280937E
:10063000220241E062EF86E70E94AD0147E264EFEB
:1006400086E70E94AD0140EA65EF86E70E94AD01B2
:100650000F900F90DF91CF91089590E080E0C5CF8B
:1006600090E080E0E2CF90E080E0CFCF8F929F9249
:10067000AF92BF92CF92DF92EF92FF92CF93DF9330
:1006800000D0CDB7DEB723E0AE014F5F5F4F6AEF1A
:1006900086E70E945B02C12CD12C760120E030E07D
:1006A000A901811139C0C980D12CF12CE12C8CE039
:1006B000CC0CDD1CEE1CFF1C8A95D1F78A8190E0E2
:1006C000B0E0A0E0880F991FAA1FBB1F880F991FD9
:1006D000AA1FBB1F880F991FAA1FBB1F880F991F36
:1006E000AA1FBB1F8C299D29AE29BF292B812295CA
:1006F0002F706C017D01C22AA701960163E0559518
:100700004795379527956A95D1F774E0F594E79466
:10071000D794C7947A95D1F78091260290912702B9
:10072000B0E0A0E0C81AD90AEA0AFB0A880F991FAC
:10073000AA1FBB1F281B390B4A0B5B0BA09124027D
:10074000B09125020E9449044B015C017BE0B59405
:10075000A794979487947A95D1F7A7019601C7013A
:10076000B6010E942E049B01AC01ECE05595479523
:1007700037952795EA95D1F7A0912202B0912302EF
:100780000E944904FEE09595879577956795FA95BF
:10079000D1F7860E971EA81EB91EC501B401660FBB
:1007A000771F881F991F660F771F881F991F680D75
:1007B000791D8A1D9B1D60587F4F8F4F9F4F672F5C
:1007C000782F892F992787FD9A950E94D40420E0DD
:1007D00030E048EC52E40E9460040F900F900F90BC
:1007E000DF91CF91FF90EF90DF90CF90BF90AF90CF
:1007F0009F908F900895CF93DF93CDB7DEB760972A
:100800000FB6F894DEBF0FBECDBF0E9455010E9407
:10081000670178940E94E302CE0101966C018EE09C
:10082000E82E82E0F82E0E943603860122E046E0A0
:100830000E946005DF92CF92FF92EF920E947E05A8
:100840009FEF27EA81E6915020408040E1F700C009
:1008500000000F900F900F900F90E5CFDB018F936A
:100860009F930E943E04BF91AF91A29F800D911D66
:10087000A39F900DB29F900D112408950E945104E2
:10088000A59F900DB49F900DA49F800D911D1124E4
:100890000895B7FF0C943E040E943E04821B930B04
:1008A0000895A29FB001B39FC001A39F700D811D49
:1008B0001124911DB29F700D811D1124911D089569
:1008C0000E9474040C9426050E941F0558F00E9493
:1008D000180540F029F45F3F29F00C940F055111E1
:1008E0000C945A050C9415050E94370568F399235A
:1008F000B1F3552391F3951B550BBB27AA2762171C
:100900007307840738F09F5F5F4F220F331F441F28
:10091000AA1FA9F335D00E2E3AF0E0E832D091505C
:100920005040E695001CCAF72BD0FE2F29D0660F49
:10093000771F881FBB1F261737074807AB07B0E88C
:1009400009F0BB0B802DBF01FF2793585F4F3AF092
:100950009E3F510578F00C940F050C945A055F3FAB
:10096000E4F3983ED4F3869577956795B795F79518
:100970009F5FC9F7880F911D9695879597F9089500
:10098000E1E0660F771F881FBB1F6217730784079C
:10099000BA0720F0621B730B840BBA0BEE1F88F7AB
:1009A000E0950895E89409C097FB3EF490958095F2
:1009B000709561957F4F8F4F9F4F9923A9F0F92F25
:1009C00096E9BB279395F695879577956795B795A3
:1009D000F111F8CFFAF4BB0F11F460FF1BC06F5F89
:1009E0007F4F8F4F9F4F16C0882311F096E911C09B
:1009F000772321F09EE8872F762F05C0662371F0BC
:100A000096E8862F70E060E02AF09A95660F771FCF
:100A1000881FDAF7880F9695879597F9089597F9C3
:100A20009F6780E870E060E008959FEF80EC089594
:100A300000240A94161617061806090608950024BD
:100A40000A9412161306140605060895092E039437
:100A5000000C11F4882352F0BB0F40F4BF2B11F4AB
:100A600060FF04C06F5F7F4F8F4F9F4F089557FD0A
:100A70009058440F551F59F05F3F71F04795880F0C
:100A800097FB991F61F09F3F79F0879508951216A3
:100A900013061406551FF2CF4695F1DF08C016164F
:100AA00017061806991FF1CF869571056105089400
:100AB0000895E894BB2766277727CB0197F9089517
:100AC000EF920F931F93CF93DF93E80134E047FD3C
:100AD00034E1042E000C550B57FF03C0519541958E
:100AE0005109E32E022F242FAE010E949407CE015C
:100AF000DF91CF911F910F91EF900895CF93DF93E6
:100B0000CDB7DEB7AE014A5F5F4FFA0161917191D7
:100B1000AF0180912A0290912B020E949205DF91F1
:100B2000CF9108952F923F924F925F926F927F9252
:100B30008F929F92AF92BF92CF92DF92EF92FF92ED
:100B40000F931F93CF93DF9300D000D000D01F925C
:100B50001F92CDB7DEB77C013B018A01FC011782F1
:100B60001682838181FFDDC1CE0101965C01F70110
:100B70009381F30193FD859193FF81913F01882338
:100B800009F453C1853239F493FD859193FF819126
:100B90003F01853229F4B70190E00E94FB09E7CFBD
:100BA000912C212C312CFFE1F31538F08B3211F10F
:100BB00090F4803209F1833229F137FC3CC020EDFA
:100BC000280F2A3050F536FE20C08AE0989E200D6E
:100BD0001124922E06C08D3291F0803371F7689403
:100BE00030F8F30193FD859193FF81913F018111CD
:100BF000DACF21C0689431F8689432F8F2CF689463
:100C000033F8EFCF689434F8ECCFEAE02E9E200D55
:100C10001124222E689435F8E4CF8E3229F436FC64
:100C200004C1689436F8DDCF8C3619F4689437F82F
:100C3000D8CF8836B1F2982F9F7D95549330E0F04D
:100C40008336A1F18337C1F1833509F063C02801F0
:100C5000F2E04F0E511CF801C080D180692D70E088
:100C600036FC02C06FEF7FEFC6010E94E5094C0120
:100C7000689437F882010AC00C5F1F4FFFE3F983C5
:100C800088248394912C6501E89437F833FE2DC0B5
:100C9000522C8114910471F5552009F468CFB701E5
:100CA00080E290E00E94FB095A94F6CFF80180811F
:100CB00089830E5F1F4FE4CF2801F2E04F0E511CD5
:100CC000F801C080D180692D70E036FC02C06FEF62
:100CD0007FEFC6010E94F0094C018201D5CFB70118
:100CE00080E290E00E94FB092A942814190409F07C
:100CF000B0F7CECFF60137FC859137FE81916F01B9
:100D0000B70190E00E94FB0951105A94F1E08F1A4C
:100D10009108BFCF843619F0893609F077C0F80101
:100D200037FE6BC060817181828193810C5F1F4FA0
:100D3000F32DFF763F2E97FF09C090958095709513
:100D400061957F4F8F4F9F4F689437F82AE030E0CE
:100D5000A5010E942B0AC82ECA188C2C432C36FEE3
:100D60000CC0E89440F8C91440F434FE05C032FCCD
:100D700003C0F32DFE7E4F2E892C44FEAAC0FE0137
:100D8000EC0DF11D8081803309F09CC0242D297E5B
:100D9000422E842D8870582E43FCAAC040FEA4C069
:100DA0009C2C821418F42C0C922C981844FEA6C08B
:100DB000B70180E390E00E94FB0942FE09C088E78A
:100DC00090E041FE02C088E590E0B7010E94FB0977
:100DD000C91408F49FC0CA94D12C9FEFC91AD90A2C
:100DE000CA0CDB1CF60182916F01B70190E00E94F2
:100DF000FB09AC14BD04B1F74FCF60817181072EA0
:100E0000000C880B990B0E5F1F4F92CFD32CE894E8
:100E1000D4F82AE030E08537E1F1232D297FD22E66
:100E20008F36A9F1F0F4883551F1F7018681978169
:100E30002B960FB6F894DEBF0FBECDBFDF91CF91DA
:100E40001F910F91FF90EF90DF90CF90BF90AF90E8
:100E50009F908F907F906F905F904F903F902F90DA
:100E60000895803749F0883701F7D4FE02C06894AE
:100E7000D2F820E130E00DC06894D4F8F6CF34FE0B
:100E800003C0822F8660D82E20E132E002C028E025
:100E900030E0F801D7FE0FC06081718182819381BB
:100EA0000C5F1F4FA5010E942B0AC82ECA183D2CAB
:100EB000E89437F852CF6081718190E080E00E5F56
:100EC0001F4FF0CF42FC02C0839463CF839483947E
:100ED00060CF842D867809F45CCFF6CFB70180E22D
:100EE00090E00E94FB0983948214C0F3512C5ECFE2
:100EF000522C5818821408F459CFF8CF842D8678D4
:100F000009F466CF8BE241FE80E247FC8DE2B70137
:100F100090E05CCFB70180E390E00E94FB099A94D7
:100F200057CF8FEF9FEF84CF8F929F92AF92BF9258
:100F3000CF92DF92EF92FF920F931F93CF93DF93A5
:100F400000D000D000D0CDB7DEB76A01F22EB02EAF
:100F5000102FFBE3AF2EA01608F41BE31F5F012F39
:100F600027E0AE014F5F5F4F0E940D09BC018981F0
:100F7000982F9970913009F44EC09BE2E1FC04C0B7
:100F80009E2D9170E0FC49C05E2D5071E82FE870F5
:100F900083FF55C084E0911101C083E0EF2DE81B71
:100FA0008F1508F0E0E0D6018E2F20E25523C9F11D
:100FB000992329F0D6019C93C60101966C019601F4
:100FC0002D5F3F4FE2FE33C08EE4D6018C9391E457
:100FD00011969C93119712968C93D9018E2F90E2C3
:100FE00081112AC0E20FF32FF11D10828EEF9FEFC7
:100FF00029960FB6F894DEBF0FBECDBFDF91CF911B
:101000001F910F91FF90EF90DF90CF90BF90AF9026
:101010009F908F9008959DE2B7CF90E2B5CF2D932A
:1010200081508111FCCFCE0ED11CE0E0C1CF8EE605
:10103000D6018C9391E6CCCF9D938150D1CF482F90
:10104000447082FF3DC084E0911101C083E08F15A0
:1010500010F4EF2DE81BD6018E2F20E2552309F165
:10106000992329F0D6019C93C60101966C01960143
:101070002D5F3F4FE2FE1BC089E4D6018C938EE4C6
:1010800011968C93119786E412968C93D9018E2F2A
:1010900090E2882309F4A6CF9D938150FACF2D9337
:1010A00081508111FCCFCE0ED11CE0E0D9CF89E672
:1010B000D6018C938EE611968C93119786E6E4CF39
:1010C0009B0177FF02C030E020E0A1E0B0E0911189
:1010D00002C0B0E0A0E0F9013196AE0FBF1F8B2C2B
:1010E000912CBB2009F461C05401EFEFAE1ABE0A87
:1010F000AA0DBB1DFA161B0619F014F04F2D4A1B42
:10110000511188C0E3FC59C07601A42FB0E2A111AF
:101110004FC0C40ED11C992309F45BC040E0D60136
:101120001196F60190836D01552309F448C0012FF3
:10113000060F9A81582F507184FF03C0913309F430
:10114000015010160CF047C0093008F008E0EEE23C
:10115000FE2E5B01A01AB10885019194819491083B
:101160002F3F320729F4D601FC92F60131966F0128
:101170006217730794F1021713077CF5DB01A21BBA
:10118000B30BAA24A394B12CAC0EBD1EAA0DBB1D9B
:1011900011968C9121503109D601119628153905E7
:1011A000F4F0F60180836D01DBCFB12CA12CA0CF30
:1011B000F701B1937F01A150AACF9111B0CFD60111
:1011C000942F50E302C05D9391509111FCCFC40E57
:1011D000D11C40E0ACCF01E0BACF80E3DBCF621797
:1011E000730731F4963388F4953311F4552369F07D
:1011F000F6018083FD01842F90E2811108C0A40FC5
:10120000B11D1C9290E080E0F3CE81E3F1CF919389
:101210008150F3CF911183CF8ACF283008F027E097
:101220003327DA01990F311D87FD91600096610522
:10123000710539F432602E5F3D9330E32A95E1F772
:1012400008959F3F30F080387105610509F03C5FDB
:101250003C5F3D93913008F08068911DDF93CF9300
:101260001F930F93FF92EF92192F987F9695E92F76
:1012700096959695E90FFF27EE5BFE4F992733274A
:10128000EE24FF24A701E70105900894079428F4B1
:10129000360FE71EF81E491F511D660F771F881F66
:1012A000991F0694A1F70590079428F4E70EF81EFD
:1012B000491F561FC11D770F881F991F661F06946F
:1012C000A1F70590079428F4F80E491F561FC71F71
:1012D000D11D880F991F661F771F0694A1F70590EF
:1012E000079420F4490F561FC71FD81F990F661F78
:1012F000771F881F0694A9F784911095177041F005
:10130000D695C79557954795F794E7941A95C1F7E1
:10131000E8EEF0E0689415901591359165919591FE
:1013200005907FE27395E118F10A430B560BC90B48
:10133000D009C0F7E10CF11E431F561FC91FD01D75
:101340007EF4703311F48A95E6CFE894015030F0C2
:10135000080F0AF40027021708F4202F2395022F04
:101360007A3328F079E37D932A95E9F710C07D93CD
:101370002A9589F60694979567953795179517944A
:10138000E118F10A430B560BC90BD00998F02395CD
:101390007E9173957A3308F070E37C932013B8F74D
:1013A0007E9170617D9330F0839571E37D9370E35E
:1013B0002A95E1F71124EF90FF900F911F91CF91A3
:1013C000DF91992787FD90950895FC010590615064
:1013D00070400110D8F7809590958E0F9F1F08954B
:1013E000FC016150704001900110D8F780959095F4
:1013F0008E0F9F1F08950F931F93CF93DF93182F86
:10140000092FEB018B8181FD09C01FEF0FEF812FA9
:10141000902FDF91CF911F910F91089582FF14C0FB
:101420002E813F818C819D81281739073CF4E8810A
:10143000F981CF0101969983888310838E819F81E2
:1014400001969F838E83E3CFE885F985812F1995D7
:10145000892BA1F3DACFFA01AA27283051F12031E4
:1014600081F1E8946F936E7F6E5F7F4F8F4F9F4F38
:10147000AF4FB1E03ED0B4E03CD0670F781F891F7A
:101480009A1FA11D680F791F8A1F911DA11D6A0F48
:10149000711D811D911DA11D20D009F468943F91FB
:1014A0002AE0269F11243019305D3193DEF6CF01FA
:1014B0000895462F4770405D4193B3E00FD0C9F7C0
:1014C000F6CF462F4F70405D4A3318F0495D31FD2D
:1014D0004052419302D0A9F7EACFB4E0A695979580
:1014E000879577956795BA95C9F700976105710556
:1014F00008959B01AC010A2E0694579547953795A0
:101500002795BA95C9F7620F731F841F951FA01DF9
:061510000895F894FFCFDE
:1015160000000002000000001401000000005465F5
:101526006D7065726174757261203D20257320436C
:021536000A00A9
:00000001FF
